{
	"contracts/StructDemo.sol": {
		"StructDemo": {
			"abi": [
				{
					"inputs": [
						{
							"internalType": "string",
							"name": "_name",
							"type": "string"
						},
						{
							"internalType": "uint256",
							"name": "_sal",
							"type": "uint256"
						},
						{
							"internalType": "address",
							"name": "_acc",
							"type": "address"
						}
					],
					"stateMutability": "nonpayable",
					"type": "constructor"
				},
				{
					"inputs": [],
					"name": "emps",
					"outputs": [
						{
							"internalType": "string",
							"name": "name",
							"type": "string"
						},
						{
							"internalType": "uint256",
							"name": "salary",
							"type": "uint256"
						},
						{
							"internalType": "address",
							"name": "acc",
							"type": "address"
						}
					],
					"stateMutability": "view",
					"type": "function"
				},
				{
					"inputs": [],
					"name": "setValues",
					"outputs": [],
					"stateMutability": "nonpayable",
					"type": "function"
				}
			],
			"devdoc": {
				"kind": "dev",
				"methods": {},
				"version": 1
			},
			"evm": {
				"assembly": "    /* \"contracts/StructDemo.sol\":65:481  contract StructDemo{... */\n  mstore(0x40, 0x80)\n    /* \"contracts/StructDemo.sol\":217:361  constructor(string memory _name, uint _sal, address _acc){... */\n  callvalue\n  dup1\n  iszero\n  tag_1\n  jumpi\n  0x00\n  dup1\n  revert\ntag_1:\n  pop\n  mload(0x40)\n  sub(codesize, bytecodeSize)\n  dup1\n  bytecodeSize\n  dup4\n  codecopy\n  dup2\n  dup2\n  add\n  0x40\n  mstore\n  dup2\n  add\n  swap1\n  tag_2\n  swap2\n  swap1\n  tag_3\n  jump\t// in\ntag_2:\n    /* \"contracts/StructDemo.sol\":296:301  _name */\n  dup3\n    /* \"contracts/StructDemo.sol\":285:289  emps */\n  0x00\n    /* \"contracts/StructDemo.sol\":285:294  emps.name */\n  dup1\n  add\n    /* \"contracts/StructDemo.sol\":285:301  emps.name =_name */\n  swap1\n  dup2\n  tag_6\n  swap2\n  swap1\n  tag_7\n  jump\t// in\ntag_6:\n  pop\n    /* \"contracts/StructDemo.sol\":324:328  _sal */\n  dup2\n    /* \"contracts/StructDemo.sol\":312:316  emps */\n  0x00\n    /* \"contracts/StructDemo.sol\":312:323  emps.salary */\n  0x01\n  add\n    /* \"contracts/StructDemo.sol\":312:328  emps.salary=_sal */\n  dup2\n  swap1\n  sstore\n  pop\n    /* \"contracts/StructDemo.sol\":349:353  _acc */\n  dup1\n    /* \"contracts/StructDemo.sol\":339:343  emps */\n  0x00\n    /* \"contracts/StructDemo.sol\":339:347  emps.acc */\n  0x02\n  add\n  0x00\n    /* \"contracts/StructDemo.sol\":339:353  emps.acc= _acc */\n  0x0100\n  exp\n  dup2\n  sload\n  dup2\n  0xffffffffffffffffffffffffffffffffffffffff\n  mul\n  not\n  and\n  swap1\n  dup4\n  0xffffffffffffffffffffffffffffffffffffffff\n  and\n  mul\n  or\n  swap1\n  sstore\n  pop\n    /* \"contracts/StructDemo.sol\":217:361  constructor(string memory _name, uint _sal, address _acc){... */\n  pop\n  pop\n  pop\n    /* \"contracts/StructDemo.sol\":65:481  contract StructDemo{... */\n  jump(tag_8)\n    /* \"#utility.yul\":7:82   */\ntag_9:\n    /* \"#utility.yul\":40:46   */\n  0x00\n    /* \"#utility.yul\":73:75   */\n  0x40\n    /* \"#utility.yul\":67:76   */\n  mload\n    /* \"#utility.yul\":57:76   */\n  swap1\n  pop\n    /* \"#utility.yul\":7:82   */\n  swap1\n  jump\t// out\n    /* \"#utility.yul\":88:205   */\ntag_10:\n    /* \"#utility.yul\":197:198   */\n  0x00\n    /* \"#utility.yul\":194:195   */\n  dup1\n    /* \"#utility.yul\":187:199   */\n  revert\n    /* \"#utility.yul\":211:328   */\ntag_11:\n    /* \"#utility.yul\":320:321   */\n  0x00\n    /* \"#utility.yul\":317:318   */\n  dup1\n    /* \"#utility.yul\":310:322   */\n  revert\n    /* \"#utility.yul\":334:451   */\ntag_12:\n    /* \"#utility.yul\":443:444   */\n  0x00\n    /* \"#utility.yul\":440:441   */\n  dup1\n    /* \"#utility.yul\":433:445   */\n  revert\n    /* \"#utility.yul\":457:574   */\ntag_13:\n    /* \"#utility.yul\":566:567   */\n  0x00\n    /* \"#utility.yul\":563:564   */\n  dup1\n    /* \"#utility.yul\":556:568   */\n  revert\n    /* \"#utility.yul\":580:682   */\ntag_14:\n    /* \"#utility.yul\":621:627   */\n  0x00\n    /* \"#utility.yul\":672:674   */\n  0x1f\n    /* \"#utility.yul\":668:675   */\n  not\n    /* \"#utility.yul\":663:665   */\n  0x1f\n    /* \"#utility.yul\":656:661   */\n  dup4\n    /* \"#utility.yul\":652:666   */\n  add\n    /* \"#utility.yul\":648:676   */\n  and\n    /* \"#utility.yul\":638:676   */\n  swap1\n  pop\n    /* \"#utility.yul\":580:682   */\n  swap2\n  swap1\n  pop\n  jump\t// out\n    /* \"#utility.yul\":688:868   */\ntag_15:\n    /* \"#utility.yul\":736:813   */\n  0x4e487b7100000000000000000000000000000000000000000000000000000000\n    /* \"#utility.yul\":733:734   */\n  0x00\n    /* \"#utility.yul\":726:814   */\n  mstore\n    /* \"#utility.yul\":833:837   */\n  0x41\n    /* \"#utility.yul\":830:831   */\n  0x04\n    /* \"#utility.yul\":823:838   */\n  mstore\n    /* \"#utility.yul\":857:861   */\n  0x24\n    /* \"#utility.yul\":854:855   */\n  0x00\n    /* \"#utility.yul\":847:862   */\n  revert\n    /* \"#utility.yul\":874:1155   */\ntag_16:\n    /* \"#utility.yul\":957:984   */\n  tag_56\n    /* \"#utility.yul\":979:983   */\n  dup3\n    /* \"#utility.yul\":957:984   */\n  tag_14\n  jump\t// in\ntag_56:\n    /* \"#utility.yul\":949:955   */\n  dup2\n    /* \"#utility.yul\":945:985   */\n  add\n    /* \"#utility.yul\":1087:1093   */\n  dup2\n    /* \"#utility.yul\":1075:1085   */\n  dup2\n    /* \"#utility.yul\":1072:1094   */\n  lt\n    /* \"#utility.yul\":1051:1069   */\n  0xffffffffffffffff\n    /* \"#utility.yul\":1039:1049   */\n  dup3\n    /* \"#utility.yul\":1036:1070   */\n  gt\n    /* \"#utility.yul\":1033:1095   */\n  or\n    /* \"#utility.yul\":1030:1118   */\n  iszero\n  tag_57\n  jumpi\n    /* \"#utility.yul\":1098:1116   */\n  tag_58\n  tag_15\n  jump\t// in\ntag_58:\n    /* \"#utility.yul\":1030:1118   */\ntag_57:\n    /* \"#utility.yul\":1138:1148   */\n  dup1\n    /* \"#utility.yul\":1134:1136   */\n  0x40\n    /* \"#utility.yul\":1127:1149   */\n  mstore\n    /* \"#utility.yul\":917:1155   */\n  pop\n    /* \"#utility.yul\":874:1155   */\n  pop\n  pop\n  jump\t// out\n    /* \"#utility.yul\":1161:1290   */\ntag_17:\n    /* \"#utility.yul\":1195:1201   */\n  0x00\n    /* \"#utility.yul\":1222:1242   */\n  tag_60\n  tag_9\n  jump\t// in\ntag_60:\n    /* \"#utility.yul\":1212:1242   */\n  swap1\n  pop\n    /* \"#utility.yul\":1251:1284   */\n  tag_61\n    /* \"#utility.yul\":1279:1283   */\n  dup3\n    /* \"#utility.yul\":1271:1277   */\n  dup3\n    /* \"#utility.yul\":1251:1284   */\n  tag_16\n  jump\t// in\ntag_61:\n    /* \"#utility.yul\":1161:1290   */\n  swap2\n  swap1\n  pop\n  jump\t// out\n    /* \"#utility.yul\":1296:1604   */\ntag_18:\n    /* \"#utility.yul\":1358:1362   */\n  0x00\n    /* \"#utility.yul\":1448:1466   */\n  0xffffffffffffffff\n    /* \"#utility.yul\":1440:1446   */\n  dup3\n    /* \"#utility.yul\":1437:1467   */\n  gt\n    /* \"#utility.yul\":1434:1490   */\n  iszero\n  tag_63\n  jumpi\n    /* \"#utility.yul\":1470:1488   */\n  tag_64\n  tag_15\n  jump\t// in\ntag_64:\n    /* \"#utility.yul\":1434:1490   */\ntag_63:\n    /* \"#utility.yul\":1508:1537   */\n  tag_65\n    /* \"#utility.yul\":1530:1536   */\n  dup3\n    /* \"#utility.yul\":1508:1537   */\n  tag_14\n  jump\t// in\ntag_65:\n    /* \"#utility.yul\":1500:1537   */\n  swap1\n  pop\n    /* \"#utility.yul\":1592:1596   */\n  0x20\n    /* \"#utility.yul\":1586:1590   */\n  dup2\n    /* \"#utility.yul\":1582:1597   */\n  add\n    /* \"#utility.yul\":1574:1597   */\n  swap1\n  pop\n    /* \"#utility.yul\":1296:1604   */\n  swap2\n  swap1\n  pop\n  jump\t// out\n    /* \"#utility.yul\":1610:1856   */\ntag_19:\n    /* \"#utility.yul\":1691:1692   */\n  0x00\n    /* \"#utility.yul\":1701:1814   */\ntag_67:\n    /* \"#utility.yul\":1715:1721   */\n  dup4\n    /* \"#utility.yul\":1712:1713   */\n  dup2\n    /* \"#utility.yul\":1709:1722   */\n  lt\n    /* \"#utility.yul\":1701:1814   */\n  iszero\n  tag_69\n  jumpi\n    /* \"#utility.yul\":1800:1801   */\n  dup1\n    /* \"#utility.yul\":1795:1798   */\n  dup3\n    /* \"#utility.yul\":1791:1802   */\n  add\n    /* \"#utility.yul\":1785:1803   */\n  mload\n    /* \"#utility.yul\":1781:1782   */\n  dup2\n    /* \"#utility.yul\":1776:1779   */\n  dup5\n    /* \"#utility.yul\":1772:1783   */\n  add\n    /* \"#utility.yul\":1765:1804   */\n  mstore\n    /* \"#utility.yul\":1737:1739   */\n  0x20\n    /* \"#utility.yul\":1734:1735   */\n  dup2\n    /* \"#utility.yul\":1730:1740   */\n  add\n    /* \"#utility.yul\":1725:1740   */\n  swap1\n  pop\n    /* \"#utility.yul\":1701:1814   */\n  jump(tag_67)\ntag_69:\n    /* \"#utility.yul\":1848:1849   */\n  0x00\n    /* \"#utility.yul\":1839:1845   */\n  dup5\n    /* \"#utility.yul\":1834:1837   */\n  dup5\n    /* \"#utility.yul\":1830:1846   */\n  add\n    /* \"#utility.yul\":1823:1850   */\n  mstore\n    /* \"#utility.yul\":1672:1856   */\n  pop\n    /* \"#utility.yul\":1610:1856   */\n  pop\n  pop\n  pop\n  jump\t// out\n    /* \"#utility.yul\":1862:2296   */\ntag_20:\n    /* \"#utility.yul\":1951:1956   */\n  0x00\n    /* \"#utility.yul\":1976:2042   */\n  tag_71\n    /* \"#utility.yul\":1992:2041   */\n  tag_72\n    /* \"#utility.yul\":2034:2040   */\n  dup5\n    /* \"#utility.yul\":1992:2041   */\n  tag_18\n  jump\t// in\ntag_72:\n    /* \"#utility.yul\":1976:2042   */\n  tag_17\n  jump\t// in\ntag_71:\n    /* \"#utility.yul\":1967:2042   */\n  swap1\n  pop\n    /* \"#utility.yul\":2065:2071   */\n  dup3\n    /* \"#utility.yul\":2058:2063   */\n  dup2\n    /* \"#utility.yul\":2051:2072   */\n  mstore\n    /* \"#utility.yul\":2103:2107   */\n  0x20\n    /* \"#utility.yul\":2096:2101   */\n  dup2\n    /* \"#utility.yul\":2092:2108   */\n  add\n    /* \"#utility.yul\":2141:2144   */\n  dup5\n    /* \"#utility.yul\":2132:2138   */\n  dup5\n    /* \"#utility.yul\":2127:2130   */\n  dup5\n    /* \"#utility.yul\":2123:2139   */\n  add\n    /* \"#utility.yul\":2120:2145   */\n  gt\n    /* \"#utility.yul\":2117:2229   */\n  iszero\n  tag_73\n  jumpi\n    /* \"#utility.yul\":2148:2227   */\n  tag_74\n  tag_13\n  jump\t// in\ntag_74:\n    /* \"#utility.yul\":2117:2229   */\ntag_73:\n    /* \"#utility.yul\":2238:2290   */\n  tag_75\n    /* \"#utility.yul\":2283:2289   */\n  dup5\n    /* \"#utility.yul\":2278:2281   */\n  dup3\n    /* \"#utility.yul\":2273:2276   */\n  dup6\n    /* \"#utility.yul\":2238:2290   */\n  tag_19\n  jump\t// in\ntag_75:\n    /* \"#utility.yul\":1957:2296   */\n  pop\n    /* \"#utility.yul\":1862:2296   */\n  swap4\n  swap3\n  pop\n  pop\n  pop\n  jump\t// out\n    /* \"#utility.yul\":2316:2671   */\ntag_21:\n    /* \"#utility.yul\":2383:2388   */\n  0x00\n    /* \"#utility.yul\":2432:2435   */\n  dup3\n    /* \"#utility.yul\":2425:2429   */\n  0x1f\n    /* \"#utility.yul\":2417:2423   */\n  dup4\n    /* \"#utility.yul\":2413:2430   */\n  add\n    /* \"#utility.yul\":2409:2436   */\n  slt\n    /* \"#utility.yul\":2399:2521   */\n  tag_77\n  jumpi\n    /* \"#utility.yul\":2440:2519   */\n  tag_78\n  tag_12\n  jump\t// in\ntag_78:\n    /* \"#utility.yul\":2399:2521   */\ntag_77:\n    /* \"#utility.yul\":2550:2556   */\n  dup2\n    /* \"#utility.yul\":2544:2557   */\n  mload\n    /* \"#utility.yul\":2575:2665   */\n  tag_79\n    /* \"#utility.yul\":2661:2664   */\n  dup5\n    /* \"#utility.yul\":2653:2659   */\n  dup3\n    /* \"#utility.yul\":2646:2650   */\n  0x20\n    /* \"#utility.yul\":2638:2644   */\n  dup7\n    /* \"#utility.yul\":2634:2651   */\n  add\n    /* \"#utility.yul\":2575:2665   */\n  tag_20\n  jump\t// in\ntag_79:\n    /* \"#utility.yul\":2566:2665   */\n  swap2\n  pop\n    /* \"#utility.yul\":2389:2671   */\n  pop\n    /* \"#utility.yul\":2316:2671   */\n  swap3\n  swap2\n  pop\n  pop\n  jump\t// out\n    /* \"#utility.yul\":2677:2754   */\ntag_22:\n    /* \"#utility.yul\":2714:2721   */\n  0x00\n    /* \"#utility.yul\":2743:2748   */\n  dup2\n    /* \"#utility.yul\":2732:2748   */\n  swap1\n  pop\n    /* \"#utility.yul\":2677:2754   */\n  swap2\n  swap1\n  pop\n  jump\t// out\n    /* \"#utility.yul\":2760:2882   */\ntag_23:\n    /* \"#utility.yul\":2833:2857   */\n  tag_82\n    /* \"#utility.yul\":2851:2856   */\n  dup2\n    /* \"#utility.yul\":2833:2857   */\n  tag_22\n  jump\t// in\ntag_82:\n    /* \"#utility.yul\":2826:2831   */\n  dup2\n    /* \"#utility.yul\":2823:2858   */\n  eq\n    /* \"#utility.yul\":2813:2876   */\n  tag_83\n  jumpi\n    /* \"#utility.yul\":2872:2873   */\n  0x00\n    /* \"#utility.yul\":2869:2870   */\n  dup1\n    /* \"#utility.yul\":2862:2874   */\n  revert\n    /* \"#utility.yul\":2813:2876   */\ntag_83:\n    /* \"#utility.yul\":2760:2882   */\n  pop\n  jump\t// out\n    /* \"#utility.yul\":2888:3031   */\ntag_24:\n    /* \"#utility.yul\":2945:2950   */\n  0x00\n    /* \"#utility.yul\":2976:2982   */\n  dup2\n    /* \"#utility.yul\":2970:2983   */\n  mload\n    /* \"#utility.yul\":2961:2983   */\n  swap1\n  pop\n    /* \"#utility.yul\":2992:3025   */\n  tag_85\n    /* \"#utility.yul\":3019:3024   */\n  dup2\n    /* \"#utility.yul\":2992:3025   */\n  tag_23\n  jump\t// in\ntag_85:\n    /* \"#utility.yul\":2888:3031   */\n  swap3\n  swap2\n  pop\n  pop\n  jump\t// out\n    /* \"#utility.yul\":3037:3163   */\ntag_25:\n    /* \"#utility.yul\":3074:3081   */\n  0x00\n    /* \"#utility.yul\":3114:3156   */\n  0xffffffffffffffffffffffffffffffffffffffff\n    /* \"#utility.yul\":3107:3112   */\n  dup3\n    /* \"#utility.yul\":3103:3157   */\n  and\n    /* \"#utility.yul\":3092:3157   */\n  swap1\n  pop\n    /* \"#utility.yul\":3037:3163   */\n  swap2\n  swap1\n  pop\n  jump\t// out\n    /* \"#utility.yul\":3169:3265   */\ntag_26:\n    /* \"#utility.yul\":3206:3213   */\n  0x00\n    /* \"#utility.yul\":3235:3259   */\n  tag_88\n    /* \"#utility.yul\":3253:3258   */\n  dup3\n    /* \"#utility.yul\":3235:3259   */\n  tag_25\n  jump\t// in\ntag_88:\n    /* \"#utility.yul\":3224:3259   */\n  swap1\n  pop\n    /* \"#utility.yul\":3169:3265   */\n  swap2\n  swap1\n  pop\n  jump\t// out\n    /* \"#utility.yul\":3271:3393   */\ntag_27:\n    /* \"#utility.yul\":3344:3368   */\n  tag_90\n    /* \"#utility.yul\":3362:3367   */\n  dup2\n    /* \"#utility.yul\":3344:3368   */\n  tag_26\n  jump\t// in\ntag_90:\n    /* \"#utility.yul\":3337:3342   */\n  dup2\n    /* \"#utility.yul\":3334:3369   */\n  eq\n    /* \"#utility.yul\":3324:3387   */\n  tag_91\n  jumpi\n    /* \"#utility.yul\":3383:3384   */\n  0x00\n    /* \"#utility.yul\":3380:3381   */\n  dup1\n    /* \"#utility.yul\":3373:3385   */\n  revert\n    /* \"#utility.yul\":3324:3387   */\ntag_91:\n    /* \"#utility.yul\":3271:3393   */\n  pop\n  jump\t// out\n    /* \"#utility.yul\":3399:3542   */\ntag_28:\n    /* \"#utility.yul\":3456:3461   */\n  0x00\n    /* \"#utility.yul\":3487:3493   */\n  dup2\n    /* \"#utility.yul\":3481:3494   */\n  mload\n    /* \"#utility.yul\":3472:3494   */\n  swap1\n  pop\n    /* \"#utility.yul\":3503:3536   */\n  tag_93\n    /* \"#utility.yul\":3530:3535   */\n  dup2\n    /* \"#utility.yul\":3503:3536   */\n  tag_27\n  jump\t// in\ntag_93:\n    /* \"#utility.yul\":3399:3542   */\n  swap3\n  swap2\n  pop\n  pop\n  jump\t// out\n    /* \"#utility.yul\":3548:4384   */\ntag_3:\n    /* \"#utility.yul\":3646:3652   */\n  0x00\n    /* \"#utility.yul\":3654:3660   */\n  dup1\n    /* \"#utility.yul\":3662:3668   */\n  0x00\n    /* \"#utility.yul\":3711:3713   */\n  0x60\n    /* \"#utility.yul\":3699:3708   */\n  dup5\n    /* \"#utility.yul\":3690:3697   */\n  dup7\n    /* \"#utility.yul\":3686:3709   */\n  sub\n    /* \"#utility.yul\":3682:3714   */\n  slt\n    /* \"#utility.yul\":3679:3798   */\n  iszero\n  tag_95\n  jumpi\n    /* \"#utility.yul\":3717:3796   */\n  tag_96\n  tag_10\n  jump\t// in\ntag_96:\n    /* \"#utility.yul\":3679:3798   */\ntag_95:\n    /* \"#utility.yul\":3858:3859   */\n  0x00\n    /* \"#utility.yul\":3847:3856   */\n  dup5\n    /* \"#utility.yul\":3843:3860   */\n  add\n    /* \"#utility.yul\":3837:3861   */\n  mload\n    /* \"#utility.yul\":3888:3906   */\n  0xffffffffffffffff\n    /* \"#utility.yul\":3880:3886   */\n  dup2\n    /* \"#utility.yul\":3877:3907   */\n  gt\n    /* \"#utility.yul\":3874:3991   */\n  iszero\n  tag_97\n  jumpi\n    /* \"#utility.yul\":3910:3989   */\n  tag_98\n  tag_11\n  jump\t// in\ntag_98:\n    /* \"#utility.yul\":3874:3991   */\ntag_97:\n    /* \"#utility.yul\":4015:4089   */\n  tag_99\n    /* \"#utility.yul\":4081:4088   */\n  dup7\n    /* \"#utility.yul\":4072:4078   */\n  dup3\n    /* \"#utility.yul\":4061:4070   */\n  dup8\n    /* \"#utility.yul\":4057:4079   */\n  add\n    /* \"#utility.yul\":4015:4089   */\n  tag_21\n  jump\t// in\ntag_99:\n    /* \"#utility.yul\":4005:4089   */\n  swap4\n  pop\n    /* \"#utility.yul\":3808:4099   */\n  pop\n    /* \"#utility.yul\":4138:4140   */\n  0x20\n    /* \"#utility.yul\":4164:4228   */\n  tag_100\n    /* \"#utility.yul\":4220:4227   */\n  dup7\n    /* \"#utility.yul\":4211:4217   */\n  dup3\n    /* \"#utility.yul\":4200:4209   */\n  dup8\n    /* \"#utility.yul\":4196:4218   */\n  add\n    /* \"#utility.yul\":4164:4228   */\n  tag_24\n  jump\t// in\ntag_100:\n    /* \"#utility.yul\":4154:4228   */\n  swap3\n  pop\n    /* \"#utility.yul\":4109:4238   */\n  pop\n    /* \"#utility.yul\":4277:4279   */\n  0x40\n    /* \"#utility.yul\":4303:4367   */\n  tag_101\n    /* \"#utility.yul\":4359:4366   */\n  dup7\n    /* \"#utility.yul\":4350:4356   */\n  dup3\n    /* \"#utility.yul\":4339:4348   */\n  dup8\n    /* \"#utility.yul\":4335:4357   */\n  add\n    /* \"#utility.yul\":4303:4367   */\n  tag_28\n  jump\t// in\ntag_101:\n    /* \"#utility.yul\":4293:4367   */\n  swap2\n  pop\n    /* \"#utility.yul\":4248:4377   */\n  pop\n    /* \"#utility.yul\":3548:4384   */\n  swap3\n  pop\n  swap3\n  pop\n  swap3\n  jump\t// out\n    /* \"#utility.yul\":4390:4489   */\ntag_29:\n    /* \"#utility.yul\":4442:4448   */\n  0x00\n    /* \"#utility.yul\":4476:4481   */\n  dup2\n    /* \"#utility.yul\":4470:4482   */\n  mload\n    /* \"#utility.yul\":4460:4482   */\n  swap1\n  pop\n    /* \"#utility.yul\":4390:4489   */\n  swap2\n  swap1\n  pop\n  jump\t// out\n    /* \"#utility.yul\":4495:4675   */\ntag_30:\n    /* \"#utility.yul\":4543:4620   */\n  0x4e487b7100000000000000000000000000000000000000000000000000000000\n    /* \"#utility.yul\":4540:4541   */\n  0x00\n    /* \"#utility.yul\":4533:4621   */\n  mstore\n    /* \"#utility.yul\":4640:4644   */\n  0x22\n    /* \"#utility.yul\":4637:4638   */\n  0x04\n    /* \"#utility.yul\":4630:4645   */\n  mstore\n    /* \"#utility.yul\":4664:4668   */\n  0x24\n    /* \"#utility.yul\":4661:4662   */\n  0x00\n    /* \"#utility.yul\":4654:4669   */\n  revert\n    /* \"#utility.yul\":4681:5001   */\ntag_31:\n    /* \"#utility.yul\":4725:4731   */\n  0x00\n    /* \"#utility.yul\":4762:4763   */\n  0x02\n    /* \"#utility.yul\":4756:4760   */\n  dup3\n    /* \"#utility.yul\":4752:4764   */\n  div\n    /* \"#utility.yul\":4742:4764   */\n  swap1\n  pop\n    /* \"#utility.yul\":4809:4810   */\n  0x01\n    /* \"#utility.yul\":4803:4807   */\n  dup3\n    /* \"#utility.yul\":4799:4811   */\n  and\n    /* \"#utility.yul\":4830:4848   */\n  dup1\n    /* \"#utility.yul\":4820:4901   */\n  tag_105\n  jumpi\n    /* \"#utility.yul\":4886:4890   */\n  0x7f\n    /* \"#utility.yul\":4878:4884   */\n  dup3\n    /* \"#utility.yul\":4874:4891   */\n  and\n    /* \"#utility.yul\":4864:4891   */\n  swap2\n  pop\n    /* \"#utility.yul\":4820:4901   */\ntag_105:\n    /* \"#utility.yul\":4948:4950   */\n  0x20\n    /* \"#utility.yul\":4940:4946   */\n  dup3\n    /* \"#utility.yul\":4937:4951   */\n  lt\n    /* \"#utility.yul\":4917:4935   */\n  dup2\n    /* \"#utility.yul\":4914:4952   */\n  sub\n    /* \"#utility.yul\":4911:4995   */\n  tag_106\n  jumpi\n    /* \"#utility.yul\":4967:4985   */\n  tag_107\n  tag_30\n  jump\t// in\ntag_107:\n    /* \"#utility.yul\":4911:4995   */\ntag_106:\n    /* \"#utility.yul\":4732:5001   */\n  pop\n    /* \"#utility.yul\":4681:5001   */\n  swap2\n  swap1\n  pop\n  jump\t// out\n    /* \"#utility.yul\":5007:5148   */\ntag_32:\n    /* \"#utility.yul\":5056:5060   */\n  0x00\n    /* \"#utility.yul\":5079:5082   */\n  dup2\n    /* \"#utility.yul\":5071:5082   */\n  swap1\n  pop\n    /* \"#utility.yul\":5102:5105   */\n  dup2\n    /* \"#utility.yul\":5099:5100   */\n  0x00\n    /* \"#utility.yul\":5092:5106   */\n  mstore\n    /* \"#utility.yul\":5136:5140   */\n  0x20\n    /* \"#utility.yul\":5133:5134   */\n  0x00\n    /* \"#utility.yul\":5123:5141   */\n  keccak256\n    /* \"#utility.yul\":5115:5141   */\n  swap1\n  pop\n    /* \"#utility.yul\":5007:5148   */\n  swap2\n  swap1\n  pop\n  jump\t// out\n    /* \"#utility.yul\":5154:5247   */\ntag_33:\n    /* \"#utility.yul\":5191:5197   */\n  0x00\n    /* \"#utility.yul\":5238:5240   */\n  0x20\n    /* \"#utility.yul\":5233:5235   */\n  0x1f\n    /* \"#utility.yul\":5226:5231   */\n  dup4\n    /* \"#utility.yul\":5222:5236   */\n  add\n    /* \"#utility.yul\":5218:5241   */\n  div\n    /* \"#utility.yul\":5208:5241   */\n  swap1\n  pop\n    /* \"#utility.yul\":5154:5247   */\n  swap2\n  swap1\n  pop\n  jump\t// out\n    /* \"#utility.yul\":5253:5360   */\ntag_34:\n    /* \"#utility.yul\":5297:5305   */\n  0x00\n    /* \"#utility.yul\":5347:5352   */\n  dup3\n    /* \"#utility.yul\":5341:5345   */\n  dup3\n    /* \"#utility.yul\":5337:5353   */\n  shl\n    /* \"#utility.yul\":5316:5353   */\n  swap1\n  pop\n    /* \"#utility.yul\":5253:5360   */\n  swap3\n  swap2\n  pop\n  pop\n  jump\t// out\n    /* \"#utility.yul\":5366:5759   */\ntag_35:\n    /* \"#utility.yul\":5435:5441   */\n  0x00\n    /* \"#utility.yul\":5485:5486   */\n  0x08\n    /* \"#utility.yul\":5473:5483   */\n  dup4\n    /* \"#utility.yul\":5469:5487   */\n  mul\n    /* \"#utility.yul\":5508:5605   */\n  tag_112\n    /* \"#utility.yul\":5538:5604   */\n  0xffffffffffffffffffffffffffffffffffffffffffffffffffffffffffffffff\n    /* \"#utility.yul\":5527:5536   */\n  dup3\n    /* \"#utility.yul\":5508:5605   */\n  tag_34\n  jump\t// in\ntag_112:\n    /* \"#utility.yul\":5626:5665   */\n  tag_113\n    /* \"#utility.yul\":5656:5664   */\n  dup7\n    /* \"#utility.yul\":5645:5654   */\n  dup4\n    /* \"#utility.yul\":5626:5665   */\n  tag_34\n  jump\t// in\ntag_113:\n    /* \"#utility.yul\":5614:5665   */\n  swap6\n  pop\n    /* \"#utility.yul\":5698:5702   */\n  dup1\n    /* \"#utility.yul\":5694:5703   */\n  not\n    /* \"#utility.yul\":5687:5692   */\n  dup5\n    /* \"#utility.yul\":5683:5704   */\n  and\n    /* \"#utility.yul\":5674:5704   */\n  swap4\n  pop\n    /* \"#utility.yul\":5747:5751   */\n  dup1\n    /* \"#utility.yul\":5737:5745   */\n  dup7\n    /* \"#utility.yul\":5733:5752   */\n  and\n    /* \"#utility.yul\":5726:5731   */\n  dup5\n    /* \"#utility.yul\":5723:5753   */\n  or\n    /* \"#utility.yul\":5713:5753   */\n  swap3\n  pop\n    /* \"#utility.yul\":5442:5759   */\n  pop\n  pop\n    /* \"#utility.yul\":5366:5759   */\n  swap4\n  swap3\n  pop\n  pop\n  pop\n  jump\t// out\n    /* \"#utility.yul\":5765:5825   */\ntag_36:\n    /* \"#utility.yul\":5793:5796   */\n  0x00\n    /* \"#utility.yul\":5814:5819   */\n  dup2\n    /* \"#utility.yul\":5807:5819   */\n  swap1\n  pop\n    /* \"#utility.yul\":5765:5825   */\n  swap2\n  swap1\n  pop\n  jump\t// out\n    /* \"#utility.yul\":5831:5973   */\ntag_37:\n    /* \"#utility.yul\":5881:5890   */\n  0x00\n    /* \"#utility.yul\":5914:5967   */\n  tag_116\n    /* \"#utility.yul\":5932:5966   */\n  tag_117\n    /* \"#utility.yul\":5941:5965   */\n  tag_118\n    /* \"#utility.yul\":5959:5964   */\n  dup5\n    /* \"#utility.yul\":5941:5965   */\n  tag_22\n  jump\t// in\ntag_118:\n    /* \"#utility.yul\":5932:5966   */\n  tag_36\n  jump\t// in\ntag_117:\n    /* \"#utility.yul\":5914:5967   */\n  tag_22\n  jump\t// in\ntag_116:\n    /* \"#utility.yul\":5901:5967   */\n  swap1\n  pop\n    /* \"#utility.yul\":5831:5973   */\n  swap2\n  swap1\n  pop\n  jump\t// out\n    /* \"#utility.yul\":5979:6054   */\ntag_38:\n    /* \"#utility.yul\":6022:6025   */\n  0x00\n    /* \"#utility.yul\":6043:6048   */\n  dup2\n    /* \"#utility.yul\":6036:6048   */\n  swap1\n  pop\n    /* \"#utility.yul\":5979:6054   */\n  swap2\n  swap1\n  pop\n  jump\t// out\n    /* \"#utility.yul\":6060:6329   */\ntag_39:\n    /* \"#utility.yul\":6170:6209   */\n  tag_121\n    /* \"#utility.yul\":6201:6208   */\n  dup4\n    /* \"#utility.yul\":6170:6209   */\n  tag_37\n  jump\t// in\ntag_121:\n    /* \"#utility.yul\":6231:6322   */\n  tag_122\n    /* \"#utility.yul\":6280:6321   */\n  tag_123\n    /* \"#utility.yul\":6304:6320   */\n  dup3\n    /* \"#utility.yul\":6280:6321   */\n  tag_38\n  jump\t// in\ntag_123:\n    /* \"#utility.yul\":6272:6278   */\n  dup5\n    /* \"#utility.yul\":6265:6269   */\n  dup5\n    /* \"#utility.yul\":6259:6270   */\n  sload\n    /* \"#utility.yul\":6231:6322   */\n  tag_35\n  jump\t// in\ntag_122:\n    /* \"#utility.yul\":6225:6229   */\n  dup3\n    /* \"#utility.yul\":6218:6323   */\n  sstore\n    /* \"#utility.yul\":6136:6329   */\n  pop\n    /* \"#utility.yul\":6060:6329   */\n  pop\n  pop\n  pop\n  jump\t// out\n    /* \"#utility.yul\":6335:6408   */\ntag_40:\n    /* \"#utility.yul\":6380:6383   */\n  0x00\n    /* \"#utility.yul\":6335:6408   */\n  swap1\n  jump\t// out\n    /* \"#utility.yul\":6414:6603   */\ntag_41:\n    /* \"#utility.yul\":6491:6523   */\n  tag_126\n  tag_40\n  jump\t// in\ntag_126:\n    /* \"#utility.yul\":6532:6597   */\n  tag_127\n    /* \"#utility.yul\":6590:6596   */\n  dup2\n    /* \"#utility.yul\":6582:6588   */\n  dup5\n    /* \"#utility.yul\":6576:6580   */\n  dup5\n    /* \"#utility.yul\":6532:6597   */\n  tag_39\n  jump\t// in\ntag_127:\n    /* \"#utility.yul\":6467:6603   */\n  pop\n    /* \"#utility.yul\":6414:6603   */\n  pop\n  pop\n  jump\t// out\n    /* \"#utility.yul\":6609:6795   */\ntag_42:\n    /* \"#utility.yul\":6669:6789   */\ntag_129:\n    /* \"#utility.yul\":6686:6689   */\n  dup2\n    /* \"#utility.yul\":6679:6684   */\n  dup2\n    /* \"#utility.yul\":6676:6690   */\n  lt\n    /* \"#utility.yul\":6669:6789   */\n  iszero\n  tag_131\n  jumpi\n    /* \"#utility.yul\":6740:6779   */\n  tag_132\n    /* \"#utility.yul\":6777:6778   */\n  0x00\n    /* \"#utility.yul\":6770:6775   */\n  dup3\n    /* \"#utility.yul\":6740:6779   */\n  tag_41\n  jump\t// in\ntag_132:\n    /* \"#utility.yul\":6713:6714   */\n  0x01\n    /* \"#utility.yul\":6706:6711   */\n  dup2\n    /* \"#utility.yul\":6702:6715   */\n  add\n    /* \"#utility.yul\":6693:6715   */\n  swap1\n  pop\n    /* \"#utility.yul\":6669:6789   */\n  jump(tag_129)\ntag_131:\n    /* \"#utility.yul\":6609:6795   */\n  pop\n  pop\n  jump\t// out\n    /* \"#utility.yul\":6801:7344   */\ntag_43:\n    /* \"#utility.yul\":6902:6904   */\n  0x1f\n    /* \"#utility.yul\":6897:6900   */\n  dup3\n    /* \"#utility.yul\":6894:6905   */\n  gt\n    /* \"#utility.yul\":6891:7337   */\n  iszero\n  tag_134\n  jumpi\n    /* \"#utility.yul\":6936:6974   */\n  tag_135\n    /* \"#utility.yul\":6968:6973   */\n  dup2\n    /* \"#utility.yul\":6936:6974   */\n  tag_32\n  jump\t// in\ntag_135:\n    /* \"#utility.yul\":7020:7049   */\n  tag_136\n    /* \"#utility.yul\":7038:7048   */\n  dup5\n    /* \"#utility.yul\":7020:7049   */\n  tag_33\n  jump\t// in\ntag_136:\n    /* \"#utility.yul\":7010:7018   */\n  dup2\n    /* \"#utility.yul\":7006:7050   */\n  add\n    /* \"#utility.yul\":7203:7205   */\n  0x20\n    /* \"#utility.yul\":7191:7201   */\n  dup6\n    /* \"#utility.yul\":7188:7206   */\n  lt\n    /* \"#utility.yul\":7185:7234   */\n  iszero\n  tag_137\n  jumpi\n    /* \"#utility.yul\":7224:7232   */\n  dup2\n    /* \"#utility.yul\":7209:7232   */\n  swap1\n  pop\n    /* \"#utility.yul\":7185:7234   */\ntag_137:\n    /* \"#utility.yul\":7247:7327   */\n  tag_138\n    /* \"#utility.yul\":7303:7325   */\n  tag_139\n    /* \"#utility.yul\":7321:7324   */\n  dup6\n    /* \"#utility.yul\":7303:7325   */\n  tag_33\n  jump\t// in\ntag_139:\n    /* \"#utility.yul\":7293:7301   */\n  dup4\n    /* \"#utility.yul\":7289:7326   */\n  add\n    /* \"#utility.yul\":7276:7287   */\n  dup3\n    /* \"#utility.yul\":7247:7327   */\n  tag_42\n  jump\t// in\ntag_138:\n    /* \"#utility.yul\":6906:7337   */\n  pop\n  pop\n    /* \"#utility.yul\":6891:7337   */\ntag_134:\n    /* \"#utility.yul\":6801:7344   */\n  pop\n  pop\n  pop\n  jump\t// out\n    /* \"#utility.yul\":7350:7467   */\ntag_44:\n    /* \"#utility.yul\":7404:7412   */\n  0x00\n    /* \"#utility.yul\":7454:7459   */\n  dup3\n    /* \"#utility.yul\":7448:7452   */\n  dup3\n    /* \"#utility.yul\":7444:7460   */\n  shr\n    /* \"#utility.yul\":7423:7460   */\n  swap1\n  pop\n    /* \"#utility.yul\":7350:7467   */\n  swap3\n  swap2\n  pop\n  pop\n  jump\t// out\n    /* \"#utility.yul\":7473:7642   */\ntag_45:\n    /* \"#utility.yul\":7517:7523   */\n  0x00\n    /* \"#utility.yul\":7550:7601   */\n  tag_142\n    /* \"#utility.yul\":7598:7599   */\n  0x00\n    /* \"#utility.yul\":7594:7600   */\n  not\n    /* \"#utility.yul\":7586:7591   */\n  dup5\n    /* \"#utility.yul\":7583:7584   */\n  0x08\n    /* \"#utility.yul\":7579:7592   */\n  mul\n    /* \"#utility.yul\":7550:7601   */\n  tag_44\n  jump\t// in\ntag_142:\n    /* \"#utility.yul\":7546:7602   */\n  not\n    /* \"#utility.yul\":7631:7635   */\n  dup1\n    /* \"#utility.yul\":7625:7629   */\n  dup4\n    /* \"#utility.yul\":7621:7636   */\n  and\n    /* \"#utility.yul\":7611:7636   */\n  swap2\n  pop\n    /* \"#utility.yul\":7524:7642   */\n  pop\n    /* \"#utility.yul\":7473:7642   */\n  swap3\n  swap2\n  pop\n  pop\n  jump\t// out\n    /* \"#utility.yul\":7647:7942   */\ntag_46:\n    /* \"#utility.yul\":7723:7727   */\n  0x00\n    /* \"#utility.yul\":7869:7898   */\n  tag_144\n    /* \"#utility.yul\":7894:7897   */\n  dup4\n    /* \"#utility.yul\":7888:7892   */\n  dup4\n    /* \"#utility.yul\":7869:7898   */\n  tag_45\n  jump\t// in\ntag_144:\n    /* \"#utility.yul\":7861:7898   */\n  swap2\n  pop\n    /* \"#utility.yul\":7931:7934   */\n  dup3\n    /* \"#utility.yul\":7928:7929   */\n  0x02\n    /* \"#utility.yul\":7924:7935   */\n  mul\n    /* \"#utility.yul\":7918:7922   */\n  dup3\n    /* \"#utility.yul\":7915:7936   */\n  or\n    /* \"#utility.yul\":7907:7936   */\n  swap1\n  pop\n    /* \"#utility.yul\":7647:7942   */\n  swap3\n  swap2\n  pop\n  pop\n  jump\t// out\n    /* \"#utility.yul\":7947:9342   */\ntag_7:\n    /* \"#utility.yul\":8064:8101   */\n  tag_146\n    /* \"#utility.yul\":8097:8100   */\n  dup3\n    /* \"#utility.yul\":8064:8101   */\n  tag_29\n  jump\t// in\ntag_146:\n    /* \"#utility.yul\":8166:8184   */\n  0xffffffffffffffff\n    /* \"#utility.yul\":8158:8164   */\n  dup2\n    /* \"#utility.yul\":8155:8185   */\n  gt\n    /* \"#utility.yul\":8152:8208   */\n  iszero\n  tag_147\n  jumpi\n    /* \"#utility.yul\":8188:8206   */\n  tag_148\n  tag_15\n  jump\t// in\ntag_148:\n    /* \"#utility.yul\":8152:8208   */\ntag_147:\n    /* \"#utility.yul\":8232:8270   */\n  tag_149\n    /* \"#utility.yul\":8264:8268   */\n  dup3\n    /* \"#utility.yul\":8258:8269   */\n  sload\n    /* \"#utility.yul\":8232:8270   */\n  tag_31\n  jump\t// in\ntag_149:\n    /* \"#utility.yul\":8317:8384   */\n  tag_150\n    /* \"#utility.yul\":8377:8383   */\n  dup3\n    /* \"#utility.yul\":8369:8375   */\n  dup3\n    /* \"#utility.yul\":8363:8367   */\n  dup6\n    /* \"#utility.yul\":8317:8384   */\n  tag_43\n  jump\t// in\ntag_150:\n    /* \"#utility.yul\":8411:8412   */\n  0x00\n    /* \"#utility.yul\":8435:8439   */\n  0x20\n    /* \"#utility.yul\":8422:8439   */\n  swap1\n  pop\n    /* \"#utility.yul\":8467:8469   */\n  0x1f\n    /* \"#utility.yul\":8459:8465   */\n  dup4\n    /* \"#utility.yul\":8456:8470   */\n  gt\n    /* \"#utility.yul\":8484:8485   */\n  0x01\n    /* \"#utility.yul\":8479:9097   */\n  dup2\n  eq\n  tag_152\n  jumpi\n    /* \"#utility.yul\":9141:9142   */\n  0x00\n    /* \"#utility.yul\":9158:9164   */\n  dup5\n    /* \"#utility.yul\":9155:9232   */\n  iszero\n  tag_153\n  jumpi\n    /* \"#utility.yul\":9207:9216   */\n  dup3\n    /* \"#utility.yul\":9202:9205   */\n  dup8\n    /* \"#utility.yul\":9198:9217   */\n  add\n    /* \"#utility.yul\":9192:9218   */\n  mload\n    /* \"#utility.yul\":9183:9218   */\n  swap1\n  pop\n    /* \"#utility.yul\":9155:9232   */\ntag_153:\n    /* \"#utility.yul\":9258:9325   */\n  tag_154\n    /* \"#utility.yul\":9318:9324   */\n  dup6\n    /* \"#utility.yul\":9311:9316   */\n  dup3\n    /* \"#utility.yul\":9258:9325   */\n  tag_46\n  jump\t// in\ntag_154:\n    /* \"#utility.yul\":9252:9256   */\n  dup7\n    /* \"#utility.yul\":9245:9326   */\n  sstore\n    /* \"#utility.yul\":9114:9336   */\n  pop\n    /* \"#utility.yul\":8449:9336   */\n  jump(tag_151)\n    /* \"#utility.yul\":8479:9097   */\ntag_152:\n    /* \"#utility.yul\":8531:8535   */\n  0x1f\n    /* \"#utility.yul\":8527:8536   */\n  not\n    /* \"#utility.yul\":8519:8525   */\n  dup5\n    /* \"#utility.yul\":8515:8537   */\n  and\n    /* \"#utility.yul\":8565:8602   */\n  tag_155\n    /* \"#utility.yul\":8597:8601   */\n  dup7\n    /* \"#utility.yul\":8565:8602   */\n  tag_32\n  jump\t// in\ntag_155:\n    /* \"#utility.yul\":8624:8625   */\n  0x00\n    /* \"#utility.yul\":8638:8846   */\ntag_156:\n    /* \"#utility.yul\":8652:8659   */\n  dup3\n    /* \"#utility.yul\":8649:8650   */\n  dup2\n    /* \"#utility.yul\":8646:8660   */\n  lt\n    /* \"#utility.yul\":8638:8846   */\n  iszero\n  tag_158\n  jumpi\n    /* \"#utility.yul\":8731:8740   */\n  dup5\n    /* \"#utility.yul\":8726:8729   */\n  dup10\n    /* \"#utility.yul\":8722:8741   */\n  add\n    /* \"#utility.yul\":8716:8742   */\n  mload\n    /* \"#utility.yul\":8708:8714   */\n  dup3\n    /* \"#utility.yul\":8701:8743   */\n  sstore\n    /* \"#utility.yul\":8782:8783   */\n  0x01\n    /* \"#utility.yul\":8774:8780   */\n  dup3\n    /* \"#utility.yul\":8770:8784   */\n  add\n    /* \"#utility.yul\":8760:8784   */\n  swap2\n  pop\n    /* \"#utility.yul\":8829:8831   */\n  0x20\n    /* \"#utility.yul\":8818:8827   */\n  dup6\n    /* \"#utility.yul\":8814:8832   */\n  add\n    /* \"#utility.yul\":8801:8832   */\n  swap5\n  pop\n    /* \"#utility.yul\":8675:8679   */\n  0x20\n    /* \"#utility.yul\":8672:8673   */\n  dup2\n    /* \"#utility.yul\":8668:8680   */\n  add\n    /* \"#utility.yul\":8663:8680   */\n  swap1\n  pop\n    /* \"#utility.yul\":8638:8846   */\n  jump(tag_156)\ntag_158:\n    /* \"#utility.yul\":8874:8880   */\n  dup7\n    /* \"#utility.yul\":8865:8872   */\n  dup4\n    /* \"#utility.yul\":8862:8881   */\n  lt\n    /* \"#utility.yul\":8859:9038   */\n  iszero\n  tag_159\n  jumpi\n    /* \"#utility.yul\":8932:8941   */\n  dup5\n    /* \"#utility.yul\":8927:8930   */\n  dup10\n    /* \"#utility.yul\":8923:8942   */\n  add\n    /* \"#utility.yul\":8917:8943   */\n  mload\n    /* \"#utility.yul\":8975:9023   */\n  tag_160\n    /* \"#utility.yul\":9017:9021   */\n  0x1f\n    /* \"#utility.yul\":9009:9015   */\n  dup10\n    /* \"#utility.yul\":9005:9022   */\n  and\n    /* \"#utility.yul\":8994:9003   */\n  dup3\n    /* \"#utility.yul\":8975:9023   */\n  tag_45\n  jump\t// in\ntag_160:\n    /* \"#utility.yul\":8967:8973   */\n  dup4\n    /* \"#utility.yul\":8960:9024   */\n  sstore\n    /* \"#utility.yul\":8882:9038   */\n  pop\n    /* \"#utility.yul\":8859:9038   */\ntag_159:\n    /* \"#utility.yul\":9084:9085   */\n  0x01\n    /* \"#utility.yul\":9080:9081   */\n  0x02\n    /* \"#utility.yul\":9072:9078   */\n  dup9\n    /* \"#utility.yul\":9068:9082   */\n  mul\n    /* \"#utility.yul\":9064:9086   */\n  add\n    /* \"#utility.yul\":9058:9062   */\n  dup9\n    /* \"#utility.yul\":9051:9087   */\n  sstore\n    /* \"#utility.yul\":8486:9097   */\n  pop\n  pop\n  pop\n    /* \"#utility.yul\":8449:9336   */\ntag_151:\n  pop\n    /* \"#utility.yul\":8039:9342   */\n  pop\n  pop\n  pop\n    /* \"#utility.yul\":7947:9342   */\n  pop\n  pop\n  jump\t// out\n    /* \"contracts/StructDemo.sol\":65:481  contract StructDemo{... */\ntag_8:\n  dataSize(sub_0)\n  dup1\n  dataOffset(sub_0)\n  0x00\n  codecopy\n  0x00\n  return\nstop\n\nsub_0: assembly {\n        /* \"contracts/StructDemo.sol\":65:481  contract StructDemo{... */\n      mstore(0x40, 0x80)\n      callvalue\n      dup1\n      iszero\n      tag_1\n      jumpi\n      0x00\n      dup1\n      revert\n    tag_1:\n      pop\n      jumpi(tag_2, lt(calldatasize, 0x04))\n      shr(0xe0, calldataload(0x00))\n      dup1\n      0x5a4c478a\n      eq\n      tag_3\n      jumpi\n      dup1\n      0x800509d5\n      eq\n      tag_4\n      jumpi\n    tag_2:\n      0x00\n      dup1\n      revert\n        /* \"contracts/StructDemo.sol\":188:208  Employee public emps */\n    tag_3:\n      tag_5\n      tag_6\n      jump\t// in\n    tag_5:\n      mload(0x40)\n      tag_7\n      swap4\n      swap3\n      swap2\n      swap1\n      tag_8\n      jump\t// in\n    tag_7:\n      mload(0x40)\n      dup1\n      swap2\n      sub\n      swap1\n      return\n        /* \"contracts/StructDemo.sol\":369:471  function setValues() public  {... */\n    tag_4:\n      tag_9\n      tag_10\n      jump\t// in\n    tag_9:\n      stop\n        /* \"contracts/StructDemo.sol\":188:208  Employee public emps */\n    tag_6:\n      0x00\n      dup1\n      0x00\n      add\n      dup1\n      sload\n      tag_11\n      swap1\n      tag_12\n      jump\t// in\n    tag_11:\n      dup1\n      0x1f\n      add\n      0x20\n      dup1\n      swap2\n      div\n      mul\n      0x20\n      add\n      mload(0x40)\n      swap1\n      dup2\n      add\n      0x40\n      mstore\n      dup1\n      swap3\n      swap2\n      swap1\n      dup2\n      dup2\n      mstore\n      0x20\n      add\n      dup3\n      dup1\n      sload\n      tag_13\n      swap1\n      tag_12\n      jump\t// in\n    tag_13:\n      dup1\n      iszero\n      tag_14\n      jumpi\n      dup1\n      0x1f\n      lt\n      tag_15\n      jumpi\n      0x0100\n      dup1\n      dup4\n      sload\n      div\n      mul\n      dup4\n      mstore\n      swap2\n      0x20\n      add\n      swap2\n      jump(tag_14)\n    tag_15:\n      dup3\n      add\n      swap2\n      swap1\n      0x00\n      mstore\n      keccak256(0x00, 0x20)\n      swap1\n    tag_16:\n      dup2\n      sload\n      dup2\n      mstore\n      swap1\n      0x01\n      add\n      swap1\n      0x20\n      add\n      dup1\n      dup4\n      gt\n      tag_16\n      jumpi\n      dup3\n      swap1\n      sub\n      0x1f\n      and\n      dup3\n      add\n      swap2\n    tag_14:\n      pop\n      pop\n      pop\n      pop\n      pop\n      swap1\n      dup1\n      0x01\n      add\n      sload\n      swap1\n      dup1\n      0x02\n      add\n      0x00\n      swap1\n      sload\n      swap1\n      0x0100\n      exp\n      swap1\n      div\n      0xffffffffffffffffffffffffffffffffffffffff\n      and\n      swap1\n      pop\n      dup4\n      jump\t// out\n        /* \"contracts/StructDemo.sol\":369:471  function setValues() public  {... */\n    tag_10:\n        /* \"contracts/StructDemo.sol\":405:426  Employee storage temp */\n      0x00\n        /* \"contracts/StructDemo.sol\":440:463  temp.name=\"Second User\" */\n      mload(0x40)\n      dup1\n      0x40\n      add\n      0x40\n      mstore\n      dup1\n      0x0b\n      dup2\n      mstore\n      0x20\n      add\n      0x5365636f6e642055736572000000000000000000000000000000000000000000\n      dup2\n      mstore\n      pop\n        /* \"contracts/StructDemo.sol\":440:444  temp */\n      dup2\n        /* \"contracts/StructDemo.sol\":440:449  temp.name */\n      0x00\n      add\n        /* \"contracts/StructDemo.sol\":440:463  temp.name=\"Second User\" */\n      swap1\n      dup2\n      tag_18\n      swap2\n      swap1\n      tag_19\n      jump\t// in\n    tag_18:\n      pop\n        /* \"contracts/StructDemo.sol\":398:471  {... */\n      pop\n        /* \"contracts/StructDemo.sol\":369:471  function setValues() public  {... */\n      jump\t// out\n        /* \"#utility.yul\":7:106   */\n    tag_20:\n        /* \"#utility.yul\":59:65   */\n      0x00\n        /* \"#utility.yul\":93:98   */\n      dup2\n        /* \"#utility.yul\":87:99   */\n      mload\n        /* \"#utility.yul\":77:99   */\n      swap1\n      pop\n        /* \"#utility.yul\":7:106   */\n      swap2\n      swap1\n      pop\n      jump\t// out\n        /* \"#utility.yul\":112:281   */\n    tag_21:\n        /* \"#utility.yul\":196:207   */\n      0x00\n        /* \"#utility.yul\":230:236   */\n      dup3\n        /* \"#utility.yul\":225:228   */\n      dup3\n        /* \"#utility.yul\":218:237   */\n      mstore\n        /* \"#utility.yul\":270:274   */\n      0x20\n        /* \"#utility.yul\":265:268   */\n      dup3\n        /* \"#utility.yul\":261:275   */\n      add\n        /* \"#utility.yul\":246:275   */\n      swap1\n      pop\n        /* \"#utility.yul\":112:281   */\n      swap3\n      swap2\n      pop\n      pop\n      jump\t// out\n        /* \"#utility.yul\":287:533   */\n    tag_22:\n        /* \"#utility.yul\":368:369   */\n      0x00\n        /* \"#utility.yul\":378:491   */\n    tag_51:\n        /* \"#utility.yul\":392:398   */\n      dup4\n        /* \"#utility.yul\":389:390   */\n      dup2\n        /* \"#utility.yul\":386:399   */\n      lt\n        /* \"#utility.yul\":378:491   */\n      iszero\n      tag_53\n      jumpi\n        /* \"#utility.yul\":477:478   */\n      dup1\n        /* \"#utility.yul\":472:475   */\n      dup3\n        /* \"#utility.yul\":468:479   */\n      add\n        /* \"#utility.yul\":462:480   */\n      mload\n        /* \"#utility.yul\":458:459   */\n      dup2\n        /* \"#utility.yul\":453:456   */\n      dup5\n        /* \"#utility.yul\":449:460   */\n      add\n        /* \"#utility.yul\":442:481   */\n      mstore\n        /* \"#utility.yul\":414:416   */\n      0x20\n        /* \"#utility.yul\":411:412   */\n      dup2\n        /* \"#utility.yul\":407:417   */\n      add\n        /* \"#utility.yul\":402:417   */\n      swap1\n      pop\n        /* \"#utility.yul\":378:491   */\n      jump(tag_51)\n    tag_53:\n        /* \"#utility.yul\":525:526   */\n      0x00\n        /* \"#utility.yul\":516:522   */\n      dup5\n        /* \"#utility.yul\":511:514   */\n      dup5\n        /* \"#utility.yul\":507:523   */\n      add\n        /* \"#utility.yul\":500:527   */\n      mstore\n        /* \"#utility.yul\":349:533   */\n      pop\n        /* \"#utility.yul\":287:533   */\n      pop\n      pop\n      pop\n      jump\t// out\n        /* \"#utility.yul\":539:641   */\n    tag_23:\n        /* \"#utility.yul\":580:586   */\n      0x00\n        /* \"#utility.yul\":631:633   */\n      0x1f\n        /* \"#utility.yul\":627:634   */\n      not\n        /* \"#utility.yul\":622:624   */\n      0x1f\n        /* \"#utility.yul\":615:620   */\n      dup4\n        /* \"#utility.yul\":611:625   */\n      add\n        /* \"#utility.yul\":607:635   */\n      and\n        /* \"#utility.yul\":597:635   */\n      swap1\n      pop\n        /* \"#utility.yul\":539:641   */\n      swap2\n      swap1\n      pop\n      jump\t// out\n        /* \"#utility.yul\":647:1024   */\n    tag_24:\n        /* \"#utility.yul\":735:738   */\n      0x00\n        /* \"#utility.yul\":763:802   */\n      tag_56\n        /* \"#utility.yul\":796:801   */\n      dup3\n        /* \"#utility.yul\":763:802   */\n      tag_20\n      jump\t// in\n    tag_56:\n        /* \"#utility.yul\":818:889   */\n      tag_57\n        /* \"#utility.yul\":882:888   */\n      dup2\n        /* \"#utility.yul\":877:880   */\n      dup6\n        /* \"#utility.yul\":818:889   */\n      tag_21\n      jump\t// in\n    tag_57:\n        /* \"#utility.yul\":811:889   */\n      swap4\n      pop\n        /* \"#utility.yul\":898:963   */\n      tag_58\n        /* \"#utility.yul\":956:962   */\n      dup2\n        /* \"#utility.yul\":951:954   */\n      dup6\n        /* \"#utility.yul\":944:948   */\n      0x20\n        /* \"#utility.yul\":937:942   */\n      dup7\n        /* \"#utility.yul\":933:949   */\n      add\n        /* \"#utility.yul\":898:963   */\n      tag_22\n      jump\t// in\n    tag_58:\n        /* \"#utility.yul\":988:1017   */\n      tag_59\n        /* \"#utility.yul\":1010:1016   */\n      dup2\n        /* \"#utility.yul\":988:1017   */\n      tag_23\n      jump\t// in\n    tag_59:\n        /* \"#utility.yul\":983:986   */\n      dup5\n        /* \"#utility.yul\":979:1018   */\n      add\n        /* \"#utility.yul\":972:1018   */\n      swap2\n      pop\n        /* \"#utility.yul\":739:1024   */\n      pop\n        /* \"#utility.yul\":647:1024   */\n      swap3\n      swap2\n      pop\n      pop\n      jump\t// out\n        /* \"#utility.yul\":1030:1107   */\n    tag_25:\n        /* \"#utility.yul\":1067:1074   */\n      0x00\n        /* \"#utility.yul\":1096:1101   */\n      dup2\n        /* \"#utility.yul\":1085:1101   */\n      swap1\n      pop\n        /* \"#utility.yul\":1030:1107   */\n      swap2\n      swap1\n      pop\n      jump\t// out\n        /* \"#utility.yul\":1113:1231   */\n    tag_26:\n        /* \"#utility.yul\":1200:1224   */\n      tag_62\n        /* \"#utility.yul\":1218:1223   */\n      dup2\n        /* \"#utility.yul\":1200:1224   */\n      tag_25\n      jump\t// in\n    tag_62:\n        /* \"#utility.yul\":1195:1198   */\n      dup3\n        /* \"#utility.yul\":1188:1225   */\n      mstore\n        /* \"#utility.yul\":1113:1231   */\n      pop\n      pop\n      jump\t// out\n        /* \"#utility.yul\":1237:1363   */\n    tag_27:\n        /* \"#utility.yul\":1274:1281   */\n      0x00\n        /* \"#utility.yul\":1314:1356   */\n      0xffffffffffffffffffffffffffffffffffffffff\n        /* \"#utility.yul\":1307:1312   */\n      dup3\n        /* \"#utility.yul\":1303:1357   */\n      and\n        /* \"#utility.yul\":1292:1357   */\n      swap1\n      pop\n        /* \"#utility.yul\":1237:1363   */\n      swap2\n      swap1\n      pop\n      jump\t// out\n        /* \"#utility.yul\":1369:1465   */\n    tag_28:\n        /* \"#utility.yul\":1406:1413   */\n      0x00\n        /* \"#utility.yul\":1435:1459   */\n      tag_65\n        /* \"#utility.yul\":1453:1458   */\n      dup3\n        /* \"#utility.yul\":1435:1459   */\n      tag_27\n      jump\t// in\n    tag_65:\n        /* \"#utility.yul\":1424:1459   */\n      swap1\n      pop\n        /* \"#utility.yul\":1369:1465   */\n      swap2\n      swap1\n      pop\n      jump\t// out\n        /* \"#utility.yul\":1471:1589   */\n    tag_29:\n        /* \"#utility.yul\":1558:1582   */\n      tag_67\n        /* \"#utility.yul\":1576:1581   */\n      dup2\n        /* \"#utility.yul\":1558:1582   */\n      tag_28\n      jump\t// in\n    tag_67:\n        /* \"#utility.yul\":1553:1556   */\n      dup3\n        /* \"#utility.yul\":1546:1583   */\n      mstore\n        /* \"#utility.yul\":1471:1589   */\n      pop\n      pop\n      jump\t// out\n        /* \"#utility.yul\":1595:2128   */\n    tag_8:\n        /* \"#utility.yul\":1764:1768   */\n      0x00\n        /* \"#utility.yul\":1802:1804   */\n      0x60\n        /* \"#utility.yul\":1791:1800   */\n      dup3\n        /* \"#utility.yul\":1787:1805   */\n      add\n        /* \"#utility.yul\":1779:1805   */\n      swap1\n      pop\n        /* \"#utility.yul\":1851:1860   */\n      dup2\n        /* \"#utility.yul\":1845:1849   */\n      dup2\n        /* \"#utility.yul\":1841:1861   */\n      sub\n        /* \"#utility.yul\":1837:1838   */\n      0x00\n        /* \"#utility.yul\":1826:1835   */\n      dup4\n        /* \"#utility.yul\":1822:1839   */\n      add\n        /* \"#utility.yul\":1815:1862   */\n      mstore\n        /* \"#utility.yul\":1879:1957   */\n      tag_69\n        /* \"#utility.yul\":1952:1956   */\n      dup2\n        /* \"#utility.yul\":1943:1949   */\n      dup7\n        /* \"#utility.yul\":1879:1957   */\n      tag_24\n      jump\t// in\n    tag_69:\n        /* \"#utility.yul\":1871:1957   */\n      swap1\n      pop\n        /* \"#utility.yul\":1967:2039   */\n      tag_70\n        /* \"#utility.yul\":2035:2037   */\n      0x20\n        /* \"#utility.yul\":2024:2033   */\n      dup4\n        /* \"#utility.yul\":2020:2038   */\n      add\n        /* \"#utility.yul\":2011:2017   */\n      dup6\n        /* \"#utility.yul\":1967:2039   */\n      tag_26\n      jump\t// in\n    tag_70:\n        /* \"#utility.yul\":2049:2121   */\n      tag_71\n        /* \"#utility.yul\":2117:2119   */\n      0x40\n        /* \"#utility.yul\":2106:2115   */\n      dup4\n        /* \"#utility.yul\":2102:2120   */\n      add\n        /* \"#utility.yul\":2093:2099   */\n      dup5\n        /* \"#utility.yul\":2049:2121   */\n      tag_29\n      jump\t// in\n    tag_71:\n        /* \"#utility.yul\":1595:2128   */\n      swap5\n      swap4\n      pop\n      pop\n      pop\n      pop\n      jump\t// out\n        /* \"#utility.yul\":2134:2314   */\n    tag_30:\n        /* \"#utility.yul\":2182:2259   */\n      0x4e487b7100000000000000000000000000000000000000000000000000000000\n        /* \"#utility.yul\":2179:2180   */\n      0x00\n        /* \"#utility.yul\":2172:2260   */\n      mstore\n        /* \"#utility.yul\":2279:2283   */\n      0x22\n        /* \"#utility.yul\":2276:2277   */\n      0x04\n        /* \"#utility.yul\":2269:2284   */\n      mstore\n        /* \"#utility.yul\":2303:2307   */\n      0x24\n        /* \"#utility.yul\":2300:2301   */\n      0x00\n        /* \"#utility.yul\":2293:2308   */\n      revert\n        /* \"#utility.yul\":2320:2640   */\n    tag_12:\n        /* \"#utility.yul\":2364:2370   */\n      0x00\n        /* \"#utility.yul\":2401:2402   */\n      0x02\n        /* \"#utility.yul\":2395:2399   */\n      dup3\n        /* \"#utility.yul\":2391:2403   */\n      div\n        /* \"#utility.yul\":2381:2403   */\n      swap1\n      pop\n        /* \"#utility.yul\":2448:2449   */\n      0x01\n        /* \"#utility.yul\":2442:2446   */\n      dup3\n        /* \"#utility.yul\":2438:2450   */\n      and\n        /* \"#utility.yul\":2469:2487   */\n      dup1\n        /* \"#utility.yul\":2459:2540   */\n      tag_74\n      jumpi\n        /* \"#utility.yul\":2525:2529   */\n      0x7f\n        /* \"#utility.yul\":2517:2523   */\n      dup3\n        /* \"#utility.yul\":2513:2530   */\n      and\n        /* \"#utility.yul\":2503:2530   */\n      swap2\n      pop\n        /* \"#utility.yul\":2459:2540   */\n    tag_74:\n        /* \"#utility.yul\":2587:2589   */\n      0x20\n        /* \"#utility.yul\":2579:2585   */\n      dup3\n        /* \"#utility.yul\":2576:2590   */\n      lt\n        /* \"#utility.yul\":2556:2574   */\n      dup2\n        /* \"#utility.yul\":2553:2591   */\n      sub\n        /* \"#utility.yul\":2550:2634   */\n      tag_75\n      jumpi\n        /* \"#utility.yul\":2606:2624   */\n      tag_76\n      tag_30\n      jump\t// in\n    tag_76:\n        /* \"#utility.yul\":2550:2634   */\n    tag_75:\n        /* \"#utility.yul\":2371:2640   */\n      pop\n        /* \"#utility.yul\":2320:2640   */\n      swap2\n      swap1\n      pop\n      jump\t// out\n        /* \"#utility.yul\":2646:2826   */\n    tag_31:\n        /* \"#utility.yul\":2694:2771   */\n      0x4e487b7100000000000000000000000000000000000000000000000000000000\n        /* \"#utility.yul\":2691:2692   */\n      0x00\n        /* \"#utility.yul\":2684:2772   */\n      mstore\n        /* \"#utility.yul\":2791:2795   */\n      0x41\n        /* \"#utility.yul\":2788:2789   */\n      0x04\n        /* \"#utility.yul\":2781:2796   */\n      mstore\n        /* \"#utility.yul\":2815:2819   */\n      0x24\n        /* \"#utility.yul\":2812:2813   */\n      0x00\n        /* \"#utility.yul\":2805:2820   */\n      revert\n        /* \"#utility.yul\":2832:2973   */\n    tag_32:\n        /* \"#utility.yul\":2881:2885   */\n      0x00\n        /* \"#utility.yul\":2904:2907   */\n      dup2\n        /* \"#utility.yul\":2896:2907   */\n      swap1\n      pop\n        /* \"#utility.yul\":2927:2930   */\n      dup2\n        /* \"#utility.yul\":2924:2925   */\n      0x00\n        /* \"#utility.yul\":2917:2931   */\n      mstore\n        /* \"#utility.yul\":2961:2965   */\n      0x20\n        /* \"#utility.yul\":2958:2959   */\n      0x00\n        /* \"#utility.yul\":2948:2966   */\n      keccak256\n        /* \"#utility.yul\":2940:2966   */\n      swap1\n      pop\n        /* \"#utility.yul\":2832:2973   */\n      swap2\n      swap1\n      pop\n      jump\t// out\n        /* \"#utility.yul\":2979:3072   */\n    tag_33:\n        /* \"#utility.yul\":3016:3022   */\n      0x00\n        /* \"#utility.yul\":3063:3065   */\n      0x20\n        /* \"#utility.yul\":3058:3060   */\n      0x1f\n        /* \"#utility.yul\":3051:3056   */\n      dup4\n        /* \"#utility.yul\":3047:3061   */\n      add\n        /* \"#utility.yul\":3043:3066   */\n      div\n        /* \"#utility.yul\":3033:3066   */\n      swap1\n      pop\n        /* \"#utility.yul\":2979:3072   */\n      swap2\n      swap1\n      pop\n      jump\t// out\n        /* \"#utility.yul\":3078:3185   */\n    tag_34:\n        /* \"#utility.yul\":3122:3130   */\n      0x00\n        /* \"#utility.yul\":3172:3177   */\n      dup3\n        /* \"#utility.yul\":3166:3170   */\n      dup3\n        /* \"#utility.yul\":3162:3178   */\n      shl\n        /* \"#utility.yul\":3141:3178   */\n      swap1\n      pop\n        /* \"#utility.yul\":3078:3185   */\n      swap3\n      swap2\n      pop\n      pop\n      jump\t// out\n        /* \"#utility.yul\":3191:3584   */\n    tag_35:\n        /* \"#utility.yul\":3260:3266   */\n      0x00\n        /* \"#utility.yul\":3310:3311   */\n      0x08\n        /* \"#utility.yul\":3298:3308   */\n      dup4\n        /* \"#utility.yul\":3294:3312   */\n      mul\n        /* \"#utility.yul\":3333:3430   */\n      tag_82\n        /* \"#utility.yul\":3363:3429   */\n      0xffffffffffffffffffffffffffffffffffffffffffffffffffffffffffffffff\n        /* \"#utility.yul\":3352:3361   */\n      dup3\n        /* \"#utility.yul\":3333:3430   */\n      tag_34\n      jump\t// in\n    tag_82:\n        /* \"#utility.yul\":3451:3490   */\n      tag_83\n        /* \"#utility.yul\":3481:3489   */\n      dup7\n        /* \"#utility.yul\":3470:3479   */\n      dup4\n        /* \"#utility.yul\":3451:3490   */\n      tag_34\n      jump\t// in\n    tag_83:\n        /* \"#utility.yul\":3439:3490   */\n      swap6\n      pop\n        /* \"#utility.yul\":3523:3527   */\n      dup1\n        /* \"#utility.yul\":3519:3528   */\n      not\n        /* \"#utility.yul\":3512:3517   */\n      dup5\n        /* \"#utility.yul\":3508:3529   */\n      and\n        /* \"#utility.yul\":3499:3529   */\n      swap4\n      pop\n        /* \"#utility.yul\":3572:3576   */\n      dup1\n        /* \"#utility.yul\":3562:3570   */\n      dup7\n        /* \"#utility.yul\":3558:3577   */\n      and\n        /* \"#utility.yul\":3551:3556   */\n      dup5\n        /* \"#utility.yul\":3548:3578   */\n      or\n        /* \"#utility.yul\":3538:3578   */\n      swap3\n      pop\n        /* \"#utility.yul\":3267:3584   */\n      pop\n      pop\n        /* \"#utility.yul\":3191:3584   */\n      swap4\n      swap3\n      pop\n      pop\n      pop\n      jump\t// out\n        /* \"#utility.yul\":3590:3650   */\n    tag_36:\n        /* \"#utility.yul\":3618:3621   */\n      0x00\n        /* \"#utility.yul\":3639:3644   */\n      dup2\n        /* \"#utility.yul\":3632:3644   */\n      swap1\n      pop\n        /* \"#utility.yul\":3590:3650   */\n      swap2\n      swap1\n      pop\n      jump\t// out\n        /* \"#utility.yul\":3656:3798   */\n    tag_37:\n        /* \"#utility.yul\":3706:3715   */\n      0x00\n        /* \"#utility.yul\":3739:3792   */\n      tag_86\n        /* \"#utility.yul\":3757:3791   */\n      tag_87\n        /* \"#utility.yul\":3766:3790   */\n      tag_88\n        /* \"#utility.yul\":3784:3789   */\n      dup5\n        /* \"#utility.yul\":3766:3790   */\n      tag_25\n      jump\t// in\n    tag_88:\n        /* \"#utility.yul\":3757:3791   */\n      tag_36\n      jump\t// in\n    tag_87:\n        /* \"#utility.yul\":3739:3792   */\n      tag_25\n      jump\t// in\n    tag_86:\n        /* \"#utility.yul\":3726:3792   */\n      swap1\n      pop\n        /* \"#utility.yul\":3656:3798   */\n      swap2\n      swap1\n      pop\n      jump\t// out\n        /* \"#utility.yul\":3804:3879   */\n    tag_38:\n        /* \"#utility.yul\":3847:3850   */\n      0x00\n        /* \"#utility.yul\":3868:3873   */\n      dup2\n        /* \"#utility.yul\":3861:3873   */\n      swap1\n      pop\n        /* \"#utility.yul\":3804:3879   */\n      swap2\n      swap1\n      pop\n      jump\t// out\n        /* \"#utility.yul\":3885:4154   */\n    tag_39:\n        /* \"#utility.yul\":3995:4034   */\n      tag_91\n        /* \"#utility.yul\":4026:4033   */\n      dup4\n        /* \"#utility.yul\":3995:4034   */\n      tag_37\n      jump\t// in\n    tag_91:\n        /* \"#utility.yul\":4056:4147   */\n      tag_92\n        /* \"#utility.yul\":4105:4146   */\n      tag_93\n        /* \"#utility.yul\":4129:4145   */\n      dup3\n        /* \"#utility.yul\":4105:4146   */\n      tag_38\n      jump\t// in\n    tag_93:\n        /* \"#utility.yul\":4097:4103   */\n      dup5\n        /* \"#utility.yul\":4090:4094   */\n      dup5\n        /* \"#utility.yul\":4084:4095   */\n      sload\n        /* \"#utility.yul\":4056:4147   */\n      tag_35\n      jump\t// in\n    tag_92:\n        /* \"#utility.yul\":4050:4054   */\n      dup3\n        /* \"#utility.yul\":4043:4148   */\n      sstore\n        /* \"#utility.yul\":3961:4154   */\n      pop\n        /* \"#utility.yul\":3885:4154   */\n      pop\n      pop\n      pop\n      jump\t// out\n        /* \"#utility.yul\":4160:4233   */\n    tag_40:\n        /* \"#utility.yul\":4205:4208   */\n      0x00\n        /* \"#utility.yul\":4160:4233   */\n      swap1\n      jump\t// out\n        /* \"#utility.yul\":4239:4428   */\n    tag_41:\n        /* \"#utility.yul\":4316:4348   */\n      tag_96\n      tag_40\n      jump\t// in\n    tag_96:\n        /* \"#utility.yul\":4357:4422   */\n      tag_97\n        /* \"#utility.yul\":4415:4421   */\n      dup2\n        /* \"#utility.yul\":4407:4413   */\n      dup5\n        /* \"#utility.yul\":4401:4405   */\n      dup5\n        /* \"#utility.yul\":4357:4422   */\n      tag_39\n      jump\t// in\n    tag_97:\n        /* \"#utility.yul\":4292:4428   */\n      pop\n        /* \"#utility.yul\":4239:4428   */\n      pop\n      pop\n      jump\t// out\n        /* \"#utility.yul\":4434:4620   */\n    tag_42:\n        /* \"#utility.yul\":4494:4614   */\n    tag_99:\n        /* \"#utility.yul\":4511:4514   */\n      dup2\n        /* \"#utility.yul\":4504:4509   */\n      dup2\n        /* \"#utility.yul\":4501:4515   */\n      lt\n        /* \"#utility.yul\":4494:4614   */\n      iszero\n      tag_101\n      jumpi\n        /* \"#utility.yul\":4565:4604   */\n      tag_102\n        /* \"#utility.yul\":4602:4603   */\n      0x00\n        /* \"#utility.yul\":4595:4600   */\n      dup3\n        /* \"#utility.yul\":4565:4604   */\n      tag_41\n      jump\t// in\n    tag_102:\n        /* \"#utility.yul\":4538:4539   */\n      0x01\n        /* \"#utility.yul\":4531:4536   */\n      dup2\n        /* \"#utility.yul\":4527:4540   */\n      add\n        /* \"#utility.yul\":4518:4540   */\n      swap1\n      pop\n        /* \"#utility.yul\":4494:4614   */\n      jump(tag_99)\n    tag_101:\n        /* \"#utility.yul\":4434:4620   */\n      pop\n      pop\n      jump\t// out\n        /* \"#utility.yul\":4626:5169   */\n    tag_43:\n        /* \"#utility.yul\":4727:4729   */\n      0x1f\n        /* \"#utility.yul\":4722:4725   */\n      dup3\n        /* \"#utility.yul\":4719:4730   */\n      gt\n        /* \"#utility.yul\":4716:5162   */\n      iszero\n      tag_104\n      jumpi\n        /* \"#utility.yul\":4761:4799   */\n      tag_105\n        /* \"#utility.yul\":4793:4798   */\n      dup2\n        /* \"#utility.yul\":4761:4799   */\n      tag_32\n      jump\t// in\n    tag_105:\n        /* \"#utility.yul\":4845:4874   */\n      tag_106\n        /* \"#utility.yul\":4863:4873   */\n      dup5\n        /* \"#utility.yul\":4845:4874   */\n      tag_33\n      jump\t// in\n    tag_106:\n        /* \"#utility.yul\":4835:4843   */\n      dup2\n        /* \"#utility.yul\":4831:4875   */\n      add\n        /* \"#utility.yul\":5028:5030   */\n      0x20\n        /* \"#utility.yul\":5016:5026   */\n      dup6\n        /* \"#utility.yul\":5013:5031   */\n      lt\n        /* \"#utility.yul\":5010:5059   */\n      iszero\n      tag_107\n      jumpi\n        /* \"#utility.yul\":5049:5057   */\n      dup2\n        /* \"#utility.yul\":5034:5057   */\n      swap1\n      pop\n        /* \"#utility.yul\":5010:5059   */\n    tag_107:\n        /* \"#utility.yul\":5072:5152   */\n      tag_108\n        /* \"#utility.yul\":5128:5150   */\n      tag_109\n        /* \"#utility.yul\":5146:5149   */\n      dup6\n        /* \"#utility.yul\":5128:5150   */\n      tag_33\n      jump\t// in\n    tag_109:\n        /* \"#utility.yul\":5118:5126   */\n      dup4\n        /* \"#utility.yul\":5114:5151   */\n      add\n        /* \"#utility.yul\":5101:5112   */\n      dup3\n        /* \"#utility.yul\":5072:5152   */\n      tag_42\n      jump\t// in\n    tag_108:\n        /* \"#utility.yul\":4731:5162   */\n      pop\n      pop\n        /* \"#utility.yul\":4716:5162   */\n    tag_104:\n        /* \"#utility.yul\":4626:5169   */\n      pop\n      pop\n      pop\n      jump\t// out\n        /* \"#utility.yul\":5175:5292   */\n    tag_44:\n        /* \"#utility.yul\":5229:5237   */\n      0x00\n        /* \"#utility.yul\":5279:5284   */\n      dup3\n        /* \"#utility.yul\":5273:5277   */\n      dup3\n        /* \"#utility.yul\":5269:5285   */\n      shr\n        /* \"#utility.yul\":5248:5285   */\n      swap1\n      pop\n        /* \"#utility.yul\":5175:5292   */\n      swap3\n      swap2\n      pop\n      pop\n      jump\t// out\n        /* \"#utility.yul\":5298:5467   */\n    tag_45:\n        /* \"#utility.yul\":5342:5348   */\n      0x00\n        /* \"#utility.yul\":5375:5426   */\n      tag_112\n        /* \"#utility.yul\":5423:5424   */\n      0x00\n        /* \"#utility.yul\":5419:5425   */\n      not\n        /* \"#utility.yul\":5411:5416   */\n      dup5\n        /* \"#utility.yul\":5408:5409   */\n      0x08\n        /* \"#utility.yul\":5404:5417   */\n      mul\n        /* \"#utility.yul\":5375:5426   */\n      tag_44\n      jump\t// in\n    tag_112:\n        /* \"#utility.yul\":5371:5427   */\n      not\n        /* \"#utility.yul\":5456:5460   */\n      dup1\n        /* \"#utility.yul\":5450:5454   */\n      dup4\n        /* \"#utility.yul\":5446:5461   */\n      and\n        /* \"#utility.yul\":5436:5461   */\n      swap2\n      pop\n        /* \"#utility.yul\":5349:5467   */\n      pop\n        /* \"#utility.yul\":5298:5467   */\n      swap3\n      swap2\n      pop\n      pop\n      jump\t// out\n        /* \"#utility.yul\":5472:5767   */\n    tag_46:\n        /* \"#utility.yul\":5548:5552   */\n      0x00\n        /* \"#utility.yul\":5694:5723   */\n      tag_114\n        /* \"#utility.yul\":5719:5722   */\n      dup4\n        /* \"#utility.yul\":5713:5717   */\n      dup4\n        /* \"#utility.yul\":5694:5723   */\n      tag_45\n      jump\t// in\n    tag_114:\n        /* \"#utility.yul\":5686:5723   */\n      swap2\n      pop\n        /* \"#utility.yul\":5756:5759   */\n      dup3\n        /* \"#utility.yul\":5753:5754   */\n      0x02\n        /* \"#utility.yul\":5749:5760   */\n      mul\n        /* \"#utility.yul\":5743:5747   */\n      dup3\n        /* \"#utility.yul\":5740:5761   */\n      or\n        /* \"#utility.yul\":5732:5761   */\n      swap1\n      pop\n        /* \"#utility.yul\":5472:5767   */\n      swap3\n      swap2\n      pop\n      pop\n      jump\t// out\n        /* \"#utility.yul\":5772:7167   */\n    tag_19:\n        /* \"#utility.yul\":5889:5926   */\n      tag_116\n        /* \"#utility.yul\":5922:5925   */\n      dup3\n        /* \"#utility.yul\":5889:5926   */\n      tag_20\n      jump\t// in\n    tag_116:\n        /* \"#utility.yul\":5991:6009   */\n      0xffffffffffffffff\n        /* \"#utility.yul\":5983:5989   */\n      dup2\n        /* \"#utility.yul\":5980:6010   */\n      gt\n        /* \"#utility.yul\":5977:6033   */\n      iszero\n      tag_117\n      jumpi\n        /* \"#utility.yul\":6013:6031   */\n      tag_118\n      tag_31\n      jump\t// in\n    tag_118:\n        /* \"#utility.yul\":5977:6033   */\n    tag_117:\n        /* \"#utility.yul\":6057:6095   */\n      tag_119\n        /* \"#utility.yul\":6089:6093   */\n      dup3\n        /* \"#utility.yul\":6083:6094   */\n      sload\n        /* \"#utility.yul\":6057:6095   */\n      tag_12\n      jump\t// in\n    tag_119:\n        /* \"#utility.yul\":6142:6209   */\n      tag_120\n        /* \"#utility.yul\":6202:6208   */\n      dup3\n        /* \"#utility.yul\":6194:6200   */\n      dup3\n        /* \"#utility.yul\":6188:6192   */\n      dup6\n        /* \"#utility.yul\":6142:6209   */\n      tag_43\n      jump\t// in\n    tag_120:\n        /* \"#utility.yul\":6236:6237   */\n      0x00\n        /* \"#utility.yul\":6260:6264   */\n      0x20\n        /* \"#utility.yul\":6247:6264   */\n      swap1\n      pop\n        /* \"#utility.yul\":6292:6294   */\n      0x1f\n        /* \"#utility.yul\":6284:6290   */\n      dup4\n        /* \"#utility.yul\":6281:6295   */\n      gt\n        /* \"#utility.yul\":6309:6310   */\n      0x01\n        /* \"#utility.yul\":6304:6922   */\n      dup2\n      eq\n      tag_122\n      jumpi\n        /* \"#utility.yul\":6966:6967   */\n      0x00\n        /* \"#utility.yul\":6983:6989   */\n      dup5\n        /* \"#utility.yul\":6980:7057   */\n      iszero\n      tag_123\n      jumpi\n        /* \"#utility.yul\":7032:7041   */\n      dup3\n        /* \"#utility.yul\":7027:7030   */\n      dup8\n        /* \"#utility.yul\":7023:7042   */\n      add\n        /* \"#utility.yul\":7017:7043   */\n      mload\n        /* \"#utility.yul\":7008:7043   */\n      swap1\n      pop\n        /* \"#utility.yul\":6980:7057   */\n    tag_123:\n        /* \"#utility.yul\":7083:7150   */\n      tag_124\n        /* \"#utility.yul\":7143:7149   */\n      dup6\n        /* \"#utility.yul\":7136:7141   */\n      dup3\n        /* \"#utility.yul\":7083:7150   */\n      tag_46\n      jump\t// in\n    tag_124:\n        /* \"#utility.yul\":7077:7081   */\n      dup7\n        /* \"#utility.yul\":7070:7151   */\n      sstore\n        /* \"#utility.yul\":6939:7161   */\n      pop\n        /* \"#utility.yul\":6274:7161   */\n      jump(tag_121)\n        /* \"#utility.yul\":6304:6922   */\n    tag_122:\n        /* \"#utility.yul\":6356:6360   */\n      0x1f\n        /* \"#utility.yul\":6352:6361   */\n      not\n        /* \"#utility.yul\":6344:6350   */\n      dup5\n        /* \"#utility.yul\":6340:6362   */\n      and\n        /* \"#utility.yul\":6390:6427   */\n      tag_125\n        /* \"#utility.yul\":6422:6426   */\n      dup7\n        /* \"#utility.yul\":6390:6427   */\n      tag_32\n      jump\t// in\n    tag_125:\n        /* \"#utility.yul\":6449:6450   */\n      0x00\n        /* \"#utility.yul\":6463:6671   */\n    tag_126:\n        /* \"#utility.yul\":6477:6484   */\n      dup3\n        /* \"#utility.yul\":6474:6475   */\n      dup2\n        /* \"#utility.yul\":6471:6485   */\n      lt\n        /* \"#utility.yul\":6463:6671   */\n      iszero\n      tag_128\n      jumpi\n        /* \"#utility.yul\":6556:6565   */\n      dup5\n        /* \"#utility.yul\":6551:6554   */\n      dup10\n        /* \"#utility.yul\":6547:6566   */\n      add\n        /* \"#utility.yul\":6541:6567   */\n      mload\n        /* \"#utility.yul\":6533:6539   */\n      dup3\n        /* \"#utility.yul\":6526:6568   */\n      sstore\n        /* \"#utility.yul\":6607:6608   */\n      0x01\n        /* \"#utility.yul\":6599:6605   */\n      dup3\n        /* \"#utility.yul\":6595:6609   */\n      add\n        /* \"#utility.yul\":6585:6609   */\n      swap2\n      pop\n        /* \"#utility.yul\":6654:6656   */\n      0x20\n        /* \"#utility.yul\":6643:6652   */\n      dup6\n        /* \"#utility.yul\":6639:6657   */\n      add\n        /* \"#utility.yul\":6626:6657   */\n      swap5\n      pop\n        /* \"#utility.yul\":6500:6504   */\n      0x20\n        /* \"#utility.yul\":6497:6498   */\n      dup2\n        /* \"#utility.yul\":6493:6505   */\n      add\n        /* \"#utility.yul\":6488:6505   */\n      swap1\n      pop\n        /* \"#utility.yul\":6463:6671   */\n      jump(tag_126)\n    tag_128:\n        /* \"#utility.yul\":6699:6705   */\n      dup7\n        /* \"#utility.yul\":6690:6697   */\n      dup4\n        /* \"#utility.yul\":6687:6706   */\n      lt\n        /* \"#utility.yul\":6684:6863   */\n      iszero\n      tag_129\n      jumpi\n        /* \"#utility.yul\":6757:6766   */\n      dup5\n        /* \"#utility.yul\":6752:6755   */\n      dup10\n        /* \"#utility.yul\":6748:6767   */\n      add\n        /* \"#utility.yul\":6742:6768   */\n      mload\n        /* \"#utility.yul\":6800:6848   */\n      tag_130\n        /* \"#utility.yul\":6842:6846   */\n      0x1f\n        /* \"#utility.yul\":6834:6840   */\n      dup10\n        /* \"#utility.yul\":6830:6847   */\n      and\n        /* \"#utility.yul\":6819:6828   */\n      dup3\n        /* \"#utility.yul\":6800:6848   */\n      tag_45\n      jump\t// in\n    tag_130:\n        /* \"#utility.yul\":6792:6798   */\n      dup4\n        /* \"#utility.yul\":6785:6849   */\n      sstore\n        /* \"#utility.yul\":6707:6863   */\n      pop\n        /* \"#utility.yul\":6684:6863   */\n    tag_129:\n        /* \"#utility.yul\":6909:6910   */\n      0x01\n        /* \"#utility.yul\":6905:6906   */\n      0x02\n        /* \"#utility.yul\":6897:6903   */\n      dup9\n        /* \"#utility.yul\":6893:6907   */\n      mul\n        /* \"#utility.yul\":6889:6911   */\n      add\n        /* \"#utility.yul\":6883:6887   */\n      dup9\n        /* \"#utility.yul\":6876:6912   */\n      sstore\n        /* \"#utility.yul\":6311:6922   */\n      pop\n      pop\n      pop\n        /* \"#utility.yul\":6274:7161   */\n    tag_121:\n      pop\n        /* \"#utility.yul\":5864:7167   */\n      pop\n      pop\n      pop\n        /* \"#utility.yul\":5772:7167   */\n      pop\n      pop\n      jump\t// out\n\n    auxdata: 0xa264697066735822122031f54ea693a5e90c25da3a51b3e9daf3cee19bf7e1a18acc65dc07fa2c02911864736f6c63430008180033\n}\n",
				"bytecode": {
					"linkReferences": {},
					"object": "608060405234801562000010575f80fd5b5060405162000c0338038062000c038339818101604052810190620000369190620002bb565b825f8001908162000048919062000561565b50815f60010181905550805f6002015f6101000a81548173ffffffffffffffffffffffffffffffffffffffff021916908373ffffffffffffffffffffffffffffffffffffffff16021790555050505062000645565b5f604051905090565b5f80fd5b5f80fd5b5f80fd5b5f80fd5b5f601f19601f8301169050919050565b7f4e487b71000000000000000000000000000000000000000000000000000000005f52604160045260245ffd5b620000fe82620000b6565b810181811067ffffffffffffffff8211171562000120576200011f620000c6565b5b80604052505050565b5f620001346200009d565b9050620001428282620000f3565b919050565b5f67ffffffffffffffff821115620001645762000163620000c6565b5b6200016f82620000b6565b9050602081019050919050565b5f5b838110156200019b5780820151818401526020810190506200017e565b5f8484015250505050565b5f620001bc620001b68462000147565b62000129565b905082815260208101848484011115620001db57620001da620000b2565b5b620001e88482856200017c565b509392505050565b5f82601f830112620002075762000206620000ae565b5b815162000219848260208601620001a6565b91505092915050565b5f819050919050565b620002368162000222565b811462000241575f80fd5b50565b5f8151905062000254816200022b565b92915050565b5f73ffffffffffffffffffffffffffffffffffffffff82169050919050565b5f62000285826200025a565b9050919050565b620002978162000279565b8114620002a2575f80fd5b50565b5f81519050620002b5816200028c565b92915050565b5f805f60608486031215620002d557620002d4620000a6565b5b5f84015167ffffffffffffffff811115620002f557620002f4620000aa565b5b6200030386828701620001f0565b9350506020620003168682870162000244565b92505060406200032986828701620002a5565b9150509250925092565b5f81519050919050565b7f4e487b71000000000000000000000000000000000000000000000000000000005f52602260045260245ffd5b5f60028204905060018216806200038257607f821691505b6020821081036200039857620003976200033d565b5b50919050565b5f819050815f5260205f209050919050565b5f6020601f8301049050919050565b5f82821b905092915050565b5f60088302620003fc7fffffffffffffffffffffffffffffffffffffffffffffffffffffffffffffffff82620003bf565b620004088683620003bf565b95508019841693508086168417925050509392505050565b5f819050919050565b5f62000449620004436200043d8462000222565b62000420565b62000222565b9050919050565b5f819050919050565b620004648362000429565b6200047c620004738262000450565b848454620003cb565b825550505050565b5f90565b6200049262000484565b6200049f81848462000459565b505050565b5b81811015620004c657620004ba5f8262000488565b600181019050620004a5565b5050565b601f8211156200051557620004df816200039e565b620004ea84620003b0565b81016020851015620004fa578190505b620005126200050985620003b0565b830182620004a4565b50505b505050565b5f82821c905092915050565b5f620005375f19846008026200051a565b1980831691505092915050565b5f62000551838362000526565b9150826002028217905092915050565b6200056c8262000333565b67ffffffffffffffff811115620005885762000587620000c6565b5b6200059482546200036a565b620005a1828285620004ca565b5f60209050601f831160018114620005d7575f8415620005c2578287015190505b620005ce858262000544565b8655506200063d565b601f198416620005e7866200039e565b5f5b828110156200061057848901518255600182019150602085019450602081019050620005e9565b868310156200063057848901516200062c601f89168262000526565b8355505b6001600288020188555050505b505050505050565b6105b080620006535f395ff3fe608060405234801561000f575f80fd5b5060043610610034575f3560e01c80635a4c478a14610038578063800509d514610058575b5f80fd5b610040610062565b60405161004f93929190610248565b60405180910390f35b61006061011d565b005b5f805f018054610071906102b1565b80601f016020809104026020016040519081016040528092919081815260200182805461009d906102b1565b80156100e85780601f106100bf576101008083540402835291602001916100e8565b820191905f5260205f20905b8154815290600101906020018083116100cb57829003601f168201915b505050505090806001015490806002015f9054906101000a900473ffffffffffffffffffffffffffffffffffffffff16905083565b5f6040518060400160405280600b81526020017f5365636f6e642055736572000000000000000000000000000000000000000000815250815f01908161016391906104ab565b5050565b5f81519050919050565b5f82825260208201905092915050565b5f5b8381101561019e578082015181840152602081019050610183565b5f8484015250505050565b5f601f19601f8301169050919050565b5f6101c382610167565b6101cd8185610171565b93506101dd818560208601610181565b6101e6816101a9565b840191505092915050565b5f819050919050565b610203816101f1565b82525050565b5f73ffffffffffffffffffffffffffffffffffffffff82169050919050565b5f61023282610209565b9050919050565b61024281610228565b82525050565b5f6060820190508181035f83015261026081866101b9565b905061026f60208301856101fa565b61027c6040830184610239565b949350505050565b7f4e487b71000000000000000000000000000000000000000000000000000000005f52602260045260245ffd5b5f60028204905060018216806102c857607f821691505b6020821081036102db576102da610284565b5b50919050565b7f4e487b71000000000000000000000000000000000000000000000000000000005f52604160045260245ffd5b5f819050815f5260205f209050919050565b5f6020601f8301049050919050565b5f82821b905092915050565b5f6008830261036a7fffffffffffffffffffffffffffffffffffffffffffffffffffffffffffffffff8261032f565b610374868361032f565b95508019841693508086168417925050509392505050565b5f819050919050565b5f6103af6103aa6103a5846101f1565b61038c565b6101f1565b9050919050565b5f819050919050565b6103c883610395565b6103dc6103d4826103b6565b84845461033b565b825550505050565b5f90565b6103f06103e4565b6103fb8184846103bf565b505050565b5b8181101561041e576104135f826103e8565b600181019050610401565b5050565b601f821115610463576104348161030e565b61043d84610320565b8101602085101561044c578190505b61046061045885610320565b830182610400565b50505b505050565b5f82821c905092915050565b5f6104835f1984600802610468565b1980831691505092915050565b5f61049b8383610474565b9150826002028217905092915050565b6104b482610167565b67ffffffffffffffff8111156104cd576104cc6102e1565b5b6104d782546102b1565b6104e2828285610422565b5f60209050601f831160018114610513575f8415610501578287015190505b61050b8582610490565b865550610572565b601f1984166105218661030e565b5f5b8281101561054857848901518255600182019150602085019450602081019050610523565b868310156105655784890151610561601f891682610474565b8355505b6001600288020188555050505b50505050505056fea264697066735822122031f54ea693a5e90c25da3a51b3e9daf3cee19bf7e1a18acc65dc07fa2c02911864736f6c63430008180033",
					"opcodes": "PUSH1 0x80 PUSH1 0x40 MSTORE CALLVALUE DUP1 ISZERO PUSH3 0x10 JUMPI PUSH0 DUP1 REVERT JUMPDEST POP PUSH1 0x40 MLOAD PUSH3 0xC03 CODESIZE SUB DUP1 PUSH3 0xC03 DUP4 CODECOPY DUP2 DUP2 ADD PUSH1 0x40 MSTORE DUP2 ADD SWAP1 PUSH3 0x36 SWAP2 SWAP1 PUSH3 0x2BB JUMP JUMPDEST DUP3 PUSH0 DUP1 ADD SWAP1 DUP2 PUSH3 0x48 SWAP2 SWAP1 PUSH3 0x561 JUMP JUMPDEST POP DUP2 PUSH0 PUSH1 0x1 ADD DUP2 SWAP1 SSTORE POP DUP1 PUSH0 PUSH1 0x2 ADD PUSH0 PUSH2 0x100 EXP DUP2 SLOAD DUP2 PUSH20 0xFFFFFFFFFFFFFFFFFFFFFFFFFFFFFFFFFFFFFFFF MUL NOT AND SWAP1 DUP4 PUSH20 0xFFFFFFFFFFFFFFFFFFFFFFFFFFFFFFFFFFFFFFFF AND MUL OR SWAP1 SSTORE POP POP POP POP PUSH3 0x645 JUMP JUMPDEST PUSH0 PUSH1 0x40 MLOAD SWAP1 POP SWAP1 JUMP JUMPDEST PUSH0 DUP1 REVERT JUMPDEST PUSH0 DUP1 REVERT JUMPDEST PUSH0 DUP1 REVERT JUMPDEST PUSH0 DUP1 REVERT JUMPDEST PUSH0 PUSH1 0x1F NOT PUSH1 0x1F DUP4 ADD AND SWAP1 POP SWAP2 SWAP1 POP JUMP JUMPDEST PUSH32 0x4E487B7100000000000000000000000000000000000000000000000000000000 PUSH0 MSTORE PUSH1 0x41 PUSH1 0x4 MSTORE PUSH1 0x24 PUSH0 REVERT JUMPDEST PUSH3 0xFE DUP3 PUSH3 0xB6 JUMP JUMPDEST DUP2 ADD DUP2 DUP2 LT PUSH8 0xFFFFFFFFFFFFFFFF DUP3 GT OR ISZERO PUSH3 0x120 JUMPI PUSH3 0x11F PUSH3 0xC6 JUMP JUMPDEST JUMPDEST DUP1 PUSH1 0x40 MSTORE POP POP POP JUMP JUMPDEST PUSH0 PUSH3 0x134 PUSH3 0x9D JUMP JUMPDEST SWAP1 POP PUSH3 0x142 DUP3 DUP3 PUSH3 0xF3 JUMP JUMPDEST SWAP2 SWAP1 POP JUMP JUMPDEST PUSH0 PUSH8 0xFFFFFFFFFFFFFFFF DUP3 GT ISZERO PUSH3 0x164 JUMPI PUSH3 0x163 PUSH3 0xC6 JUMP JUMPDEST JUMPDEST PUSH3 0x16F DUP3 PUSH3 0xB6 JUMP JUMPDEST SWAP1 POP PUSH1 0x20 DUP2 ADD SWAP1 POP SWAP2 SWAP1 POP JUMP JUMPDEST PUSH0 JUMPDEST DUP4 DUP2 LT ISZERO PUSH3 0x19B JUMPI DUP1 DUP3 ADD MLOAD DUP2 DUP5 ADD MSTORE PUSH1 0x20 DUP2 ADD SWAP1 POP PUSH3 0x17E JUMP JUMPDEST PUSH0 DUP5 DUP5 ADD MSTORE POP POP POP POP JUMP JUMPDEST PUSH0 PUSH3 0x1BC PUSH3 0x1B6 DUP5 PUSH3 0x147 JUMP JUMPDEST PUSH3 0x129 JUMP JUMPDEST SWAP1 POP DUP3 DUP2 MSTORE PUSH1 0x20 DUP2 ADD DUP5 DUP5 DUP5 ADD GT ISZERO PUSH3 0x1DB JUMPI PUSH3 0x1DA PUSH3 0xB2 JUMP JUMPDEST JUMPDEST PUSH3 0x1E8 DUP5 DUP3 DUP6 PUSH3 0x17C JUMP JUMPDEST POP SWAP4 SWAP3 POP POP POP JUMP JUMPDEST PUSH0 DUP3 PUSH1 0x1F DUP4 ADD SLT PUSH3 0x207 JUMPI PUSH3 0x206 PUSH3 0xAE JUMP JUMPDEST JUMPDEST DUP2 MLOAD PUSH3 0x219 DUP5 DUP3 PUSH1 0x20 DUP7 ADD PUSH3 0x1A6 JUMP JUMPDEST SWAP2 POP POP SWAP3 SWAP2 POP POP JUMP JUMPDEST PUSH0 DUP2 SWAP1 POP SWAP2 SWAP1 POP JUMP JUMPDEST PUSH3 0x236 DUP2 PUSH3 0x222 JUMP JUMPDEST DUP2 EQ PUSH3 0x241 JUMPI PUSH0 DUP1 REVERT JUMPDEST POP JUMP JUMPDEST PUSH0 DUP2 MLOAD SWAP1 POP PUSH3 0x254 DUP2 PUSH3 0x22B JUMP JUMPDEST SWAP3 SWAP2 POP POP JUMP JUMPDEST PUSH0 PUSH20 0xFFFFFFFFFFFFFFFFFFFFFFFFFFFFFFFFFFFFFFFF DUP3 AND SWAP1 POP SWAP2 SWAP1 POP JUMP JUMPDEST PUSH0 PUSH3 0x285 DUP3 PUSH3 0x25A JUMP JUMPDEST SWAP1 POP SWAP2 SWAP1 POP JUMP JUMPDEST PUSH3 0x297 DUP2 PUSH3 0x279 JUMP JUMPDEST DUP2 EQ PUSH3 0x2A2 JUMPI PUSH0 DUP1 REVERT JUMPDEST POP JUMP JUMPDEST PUSH0 DUP2 MLOAD SWAP1 POP PUSH3 0x2B5 DUP2 PUSH3 0x28C JUMP JUMPDEST SWAP3 SWAP2 POP POP JUMP JUMPDEST PUSH0 DUP1 PUSH0 PUSH1 0x60 DUP5 DUP7 SUB SLT ISZERO PUSH3 0x2D5 JUMPI PUSH3 0x2D4 PUSH3 0xA6 JUMP JUMPDEST JUMPDEST PUSH0 DUP5 ADD MLOAD PUSH8 0xFFFFFFFFFFFFFFFF DUP2 GT ISZERO PUSH3 0x2F5 JUMPI PUSH3 0x2F4 PUSH3 0xAA JUMP JUMPDEST JUMPDEST PUSH3 0x303 DUP7 DUP3 DUP8 ADD PUSH3 0x1F0 JUMP JUMPDEST SWAP4 POP POP PUSH1 0x20 PUSH3 0x316 DUP7 DUP3 DUP8 ADD PUSH3 0x244 JUMP JUMPDEST SWAP3 POP POP PUSH1 0x40 PUSH3 0x329 DUP7 DUP3 DUP8 ADD PUSH3 0x2A5 JUMP JUMPDEST SWAP2 POP POP SWAP3 POP SWAP3 POP SWAP3 JUMP JUMPDEST PUSH0 DUP2 MLOAD SWAP1 POP SWAP2 SWAP1 POP JUMP JUMPDEST PUSH32 0x4E487B7100000000000000000000000000000000000000000000000000000000 PUSH0 MSTORE PUSH1 0x22 PUSH1 0x4 MSTORE PUSH1 0x24 PUSH0 REVERT JUMPDEST PUSH0 PUSH1 0x2 DUP3 DIV SWAP1 POP PUSH1 0x1 DUP3 AND DUP1 PUSH3 0x382 JUMPI PUSH1 0x7F DUP3 AND SWAP2 POP JUMPDEST PUSH1 0x20 DUP3 LT DUP2 SUB PUSH3 0x398 JUMPI PUSH3 0x397 PUSH3 0x33D JUMP JUMPDEST JUMPDEST POP SWAP2 SWAP1 POP JUMP JUMPDEST PUSH0 DUP2 SWAP1 POP DUP2 PUSH0 MSTORE PUSH1 0x20 PUSH0 KECCAK256 SWAP1 POP SWAP2 SWAP1 POP JUMP JUMPDEST PUSH0 PUSH1 0x20 PUSH1 0x1F DUP4 ADD DIV SWAP1 POP SWAP2 SWAP1 POP JUMP JUMPDEST PUSH0 DUP3 DUP3 SHL SWAP1 POP SWAP3 SWAP2 POP POP JUMP JUMPDEST PUSH0 PUSH1 0x8 DUP4 MUL PUSH3 0x3FC PUSH32 0xFFFFFFFFFFFFFFFFFFFFFFFFFFFFFFFFFFFFFFFFFFFFFFFFFFFFFFFFFFFFFFFF DUP3 PUSH3 0x3BF JUMP JUMPDEST PUSH3 0x408 DUP7 DUP4 PUSH3 0x3BF JUMP JUMPDEST SWAP6 POP DUP1 NOT DUP5 AND SWAP4 POP DUP1 DUP7 AND DUP5 OR SWAP3 POP POP POP SWAP4 SWAP3 POP POP POP JUMP JUMPDEST PUSH0 DUP2 SWAP1 POP SWAP2 SWAP1 POP JUMP JUMPDEST PUSH0 PUSH3 0x449 PUSH3 0x443 PUSH3 0x43D DUP5 PUSH3 0x222 JUMP JUMPDEST PUSH3 0x420 JUMP JUMPDEST PUSH3 0x222 JUMP JUMPDEST SWAP1 POP SWAP2 SWAP1 POP JUMP JUMPDEST PUSH0 DUP2 SWAP1 POP SWAP2 SWAP1 POP JUMP JUMPDEST PUSH3 0x464 DUP4 PUSH3 0x429 JUMP JUMPDEST PUSH3 0x47C PUSH3 0x473 DUP3 PUSH3 0x450 JUMP JUMPDEST DUP5 DUP5 SLOAD PUSH3 0x3CB JUMP JUMPDEST DUP3 SSTORE POP POP POP POP JUMP JUMPDEST PUSH0 SWAP1 JUMP JUMPDEST PUSH3 0x492 PUSH3 0x484 JUMP JUMPDEST PUSH3 0x49F DUP2 DUP5 DUP5 PUSH3 0x459 JUMP JUMPDEST POP POP POP JUMP JUMPDEST JUMPDEST DUP2 DUP2 LT ISZERO PUSH3 0x4C6 JUMPI PUSH3 0x4BA PUSH0 DUP3 PUSH3 0x488 JUMP JUMPDEST PUSH1 0x1 DUP2 ADD SWAP1 POP PUSH3 0x4A5 JUMP JUMPDEST POP POP JUMP JUMPDEST PUSH1 0x1F DUP3 GT ISZERO PUSH3 0x515 JUMPI PUSH3 0x4DF DUP2 PUSH3 0x39E JUMP JUMPDEST PUSH3 0x4EA DUP5 PUSH3 0x3B0 JUMP JUMPDEST DUP2 ADD PUSH1 0x20 DUP6 LT ISZERO PUSH3 0x4FA JUMPI DUP2 SWAP1 POP JUMPDEST PUSH3 0x512 PUSH3 0x509 DUP6 PUSH3 0x3B0 JUMP JUMPDEST DUP4 ADD DUP3 PUSH3 0x4A4 JUMP JUMPDEST POP POP JUMPDEST POP POP POP JUMP JUMPDEST PUSH0 DUP3 DUP3 SHR SWAP1 POP SWAP3 SWAP2 POP POP JUMP JUMPDEST PUSH0 PUSH3 0x537 PUSH0 NOT DUP5 PUSH1 0x8 MUL PUSH3 0x51A JUMP JUMPDEST NOT DUP1 DUP4 AND SWAP2 POP POP SWAP3 SWAP2 POP POP JUMP JUMPDEST PUSH0 PUSH3 0x551 DUP4 DUP4 PUSH3 0x526 JUMP JUMPDEST SWAP2 POP DUP3 PUSH1 0x2 MUL DUP3 OR SWAP1 POP SWAP3 SWAP2 POP POP JUMP JUMPDEST PUSH3 0x56C DUP3 PUSH3 0x333 JUMP JUMPDEST PUSH8 0xFFFFFFFFFFFFFFFF DUP2 GT ISZERO PUSH3 0x588 JUMPI PUSH3 0x587 PUSH3 0xC6 JUMP JUMPDEST JUMPDEST PUSH3 0x594 DUP3 SLOAD PUSH3 0x36A JUMP JUMPDEST PUSH3 0x5A1 DUP3 DUP3 DUP6 PUSH3 0x4CA JUMP JUMPDEST PUSH0 PUSH1 0x20 SWAP1 POP PUSH1 0x1F DUP4 GT PUSH1 0x1 DUP2 EQ PUSH3 0x5D7 JUMPI PUSH0 DUP5 ISZERO PUSH3 0x5C2 JUMPI DUP3 DUP8 ADD MLOAD SWAP1 POP JUMPDEST PUSH3 0x5CE DUP6 DUP3 PUSH3 0x544 JUMP JUMPDEST DUP7 SSTORE POP PUSH3 0x63D JUMP JUMPDEST PUSH1 0x1F NOT DUP5 AND PUSH3 0x5E7 DUP7 PUSH3 0x39E JUMP JUMPDEST PUSH0 JUMPDEST DUP3 DUP2 LT ISZERO PUSH3 0x610 JUMPI DUP5 DUP10 ADD MLOAD DUP3 SSTORE PUSH1 0x1 DUP3 ADD SWAP2 POP PUSH1 0x20 DUP6 ADD SWAP5 POP PUSH1 0x20 DUP2 ADD SWAP1 POP PUSH3 0x5E9 JUMP JUMPDEST DUP7 DUP4 LT ISZERO PUSH3 0x630 JUMPI DUP5 DUP10 ADD MLOAD PUSH3 0x62C PUSH1 0x1F DUP10 AND DUP3 PUSH3 0x526 JUMP JUMPDEST DUP4 SSTORE POP JUMPDEST PUSH1 0x1 PUSH1 0x2 DUP9 MUL ADD DUP9 SSTORE POP POP POP JUMPDEST POP POP POP POP POP POP JUMP JUMPDEST PUSH2 0x5B0 DUP1 PUSH3 0x653 PUSH0 CODECOPY PUSH0 RETURN INVALID PUSH1 0x80 PUSH1 0x40 MSTORE CALLVALUE DUP1 ISZERO PUSH2 0xF JUMPI PUSH0 DUP1 REVERT JUMPDEST POP PUSH1 0x4 CALLDATASIZE LT PUSH2 0x34 JUMPI PUSH0 CALLDATALOAD PUSH1 0xE0 SHR DUP1 PUSH4 0x5A4C478A EQ PUSH2 0x38 JUMPI DUP1 PUSH4 0x800509D5 EQ PUSH2 0x58 JUMPI JUMPDEST PUSH0 DUP1 REVERT JUMPDEST PUSH2 0x40 PUSH2 0x62 JUMP JUMPDEST PUSH1 0x40 MLOAD PUSH2 0x4F SWAP4 SWAP3 SWAP2 SWAP1 PUSH2 0x248 JUMP JUMPDEST PUSH1 0x40 MLOAD DUP1 SWAP2 SUB SWAP1 RETURN JUMPDEST PUSH2 0x60 PUSH2 0x11D JUMP JUMPDEST STOP JUMPDEST PUSH0 DUP1 PUSH0 ADD DUP1 SLOAD PUSH2 0x71 SWAP1 PUSH2 0x2B1 JUMP JUMPDEST DUP1 PUSH1 0x1F ADD PUSH1 0x20 DUP1 SWAP2 DIV MUL PUSH1 0x20 ADD PUSH1 0x40 MLOAD SWAP1 DUP2 ADD PUSH1 0x40 MSTORE DUP1 SWAP3 SWAP2 SWAP1 DUP2 DUP2 MSTORE PUSH1 0x20 ADD DUP3 DUP1 SLOAD PUSH2 0x9D SWAP1 PUSH2 0x2B1 JUMP JUMPDEST DUP1 ISZERO PUSH2 0xE8 JUMPI DUP1 PUSH1 0x1F LT PUSH2 0xBF JUMPI PUSH2 0x100 DUP1 DUP4 SLOAD DIV MUL DUP4 MSTORE SWAP2 PUSH1 0x20 ADD SWAP2 PUSH2 0xE8 JUMP JUMPDEST DUP3 ADD SWAP2 SWAP1 PUSH0 MSTORE PUSH1 0x20 PUSH0 KECCAK256 SWAP1 JUMPDEST DUP2 SLOAD DUP2 MSTORE SWAP1 PUSH1 0x1 ADD SWAP1 PUSH1 0x20 ADD DUP1 DUP4 GT PUSH2 0xCB JUMPI DUP3 SWAP1 SUB PUSH1 0x1F AND DUP3 ADD SWAP2 JUMPDEST POP POP POP POP POP SWAP1 DUP1 PUSH1 0x1 ADD SLOAD SWAP1 DUP1 PUSH1 0x2 ADD PUSH0 SWAP1 SLOAD SWAP1 PUSH2 0x100 EXP SWAP1 DIV PUSH20 0xFFFFFFFFFFFFFFFFFFFFFFFFFFFFFFFFFFFFFFFF AND SWAP1 POP DUP4 JUMP JUMPDEST PUSH0 PUSH1 0x40 MLOAD DUP1 PUSH1 0x40 ADD PUSH1 0x40 MSTORE DUP1 PUSH1 0xB DUP2 MSTORE PUSH1 0x20 ADD PUSH32 0x5365636F6E642055736572000000000000000000000000000000000000000000 DUP2 MSTORE POP DUP2 PUSH0 ADD SWAP1 DUP2 PUSH2 0x163 SWAP2 SWAP1 PUSH2 0x4AB JUMP JUMPDEST POP POP JUMP JUMPDEST PUSH0 DUP2 MLOAD SWAP1 POP SWAP2 SWAP1 POP JUMP JUMPDEST PUSH0 DUP3 DUP3 MSTORE PUSH1 0x20 DUP3 ADD SWAP1 POP SWAP3 SWAP2 POP POP JUMP JUMPDEST PUSH0 JUMPDEST DUP4 DUP2 LT ISZERO PUSH2 0x19E JUMPI DUP1 DUP3 ADD MLOAD DUP2 DUP5 ADD MSTORE PUSH1 0x20 DUP2 ADD SWAP1 POP PUSH2 0x183 JUMP JUMPDEST PUSH0 DUP5 DUP5 ADD MSTORE POP POP POP POP JUMP JUMPDEST PUSH0 PUSH1 0x1F NOT PUSH1 0x1F DUP4 ADD AND SWAP1 POP SWAP2 SWAP1 POP JUMP JUMPDEST PUSH0 PUSH2 0x1C3 DUP3 PUSH2 0x167 JUMP JUMPDEST PUSH2 0x1CD DUP2 DUP6 PUSH2 0x171 JUMP JUMPDEST SWAP4 POP PUSH2 0x1DD DUP2 DUP6 PUSH1 0x20 DUP7 ADD PUSH2 0x181 JUMP JUMPDEST PUSH2 0x1E6 DUP2 PUSH2 0x1A9 JUMP JUMPDEST DUP5 ADD SWAP2 POP POP SWAP3 SWAP2 POP POP JUMP JUMPDEST PUSH0 DUP2 SWAP1 POP SWAP2 SWAP1 POP JUMP JUMPDEST PUSH2 0x203 DUP2 PUSH2 0x1F1 JUMP JUMPDEST DUP3 MSTORE POP POP JUMP JUMPDEST PUSH0 PUSH20 0xFFFFFFFFFFFFFFFFFFFFFFFFFFFFFFFFFFFFFFFF DUP3 AND SWAP1 POP SWAP2 SWAP1 POP JUMP JUMPDEST PUSH0 PUSH2 0x232 DUP3 PUSH2 0x209 JUMP JUMPDEST SWAP1 POP SWAP2 SWAP1 POP JUMP JUMPDEST PUSH2 0x242 DUP2 PUSH2 0x228 JUMP JUMPDEST DUP3 MSTORE POP POP JUMP JUMPDEST PUSH0 PUSH1 0x60 DUP3 ADD SWAP1 POP DUP2 DUP2 SUB PUSH0 DUP4 ADD MSTORE PUSH2 0x260 DUP2 DUP7 PUSH2 0x1B9 JUMP JUMPDEST SWAP1 POP PUSH2 0x26F PUSH1 0x20 DUP4 ADD DUP6 PUSH2 0x1FA JUMP JUMPDEST PUSH2 0x27C PUSH1 0x40 DUP4 ADD DUP5 PUSH2 0x239 JUMP JUMPDEST SWAP5 SWAP4 POP POP POP POP JUMP JUMPDEST PUSH32 0x4E487B7100000000000000000000000000000000000000000000000000000000 PUSH0 MSTORE PUSH1 0x22 PUSH1 0x4 MSTORE PUSH1 0x24 PUSH0 REVERT JUMPDEST PUSH0 PUSH1 0x2 DUP3 DIV SWAP1 POP PUSH1 0x1 DUP3 AND DUP1 PUSH2 0x2C8 JUMPI PUSH1 0x7F DUP3 AND SWAP2 POP JUMPDEST PUSH1 0x20 DUP3 LT DUP2 SUB PUSH2 0x2DB JUMPI PUSH2 0x2DA PUSH2 0x284 JUMP JUMPDEST JUMPDEST POP SWAP2 SWAP1 POP JUMP JUMPDEST PUSH32 0x4E487B7100000000000000000000000000000000000000000000000000000000 PUSH0 MSTORE PUSH1 0x41 PUSH1 0x4 MSTORE PUSH1 0x24 PUSH0 REVERT JUMPDEST PUSH0 DUP2 SWAP1 POP DUP2 PUSH0 MSTORE PUSH1 0x20 PUSH0 KECCAK256 SWAP1 POP SWAP2 SWAP1 POP JUMP JUMPDEST PUSH0 PUSH1 0x20 PUSH1 0x1F DUP4 ADD DIV SWAP1 POP SWAP2 SWAP1 POP JUMP JUMPDEST PUSH0 DUP3 DUP3 SHL SWAP1 POP SWAP3 SWAP2 POP POP JUMP JUMPDEST PUSH0 PUSH1 0x8 DUP4 MUL PUSH2 0x36A PUSH32 0xFFFFFFFFFFFFFFFFFFFFFFFFFFFFFFFFFFFFFFFFFFFFFFFFFFFFFFFFFFFFFFFF DUP3 PUSH2 0x32F JUMP JUMPDEST PUSH2 0x374 DUP7 DUP4 PUSH2 0x32F JUMP JUMPDEST SWAP6 POP DUP1 NOT DUP5 AND SWAP4 POP DUP1 DUP7 AND DUP5 OR SWAP3 POP POP POP SWAP4 SWAP3 POP POP POP JUMP JUMPDEST PUSH0 DUP2 SWAP1 POP SWAP2 SWAP1 POP JUMP JUMPDEST PUSH0 PUSH2 0x3AF PUSH2 0x3AA PUSH2 0x3A5 DUP5 PUSH2 0x1F1 JUMP JUMPDEST PUSH2 0x38C JUMP JUMPDEST PUSH2 0x1F1 JUMP JUMPDEST SWAP1 POP SWAP2 SWAP1 POP JUMP JUMPDEST PUSH0 DUP2 SWAP1 POP SWAP2 SWAP1 POP JUMP JUMPDEST PUSH2 0x3C8 DUP4 PUSH2 0x395 JUMP JUMPDEST PUSH2 0x3DC PUSH2 0x3D4 DUP3 PUSH2 0x3B6 JUMP JUMPDEST DUP5 DUP5 SLOAD PUSH2 0x33B JUMP JUMPDEST DUP3 SSTORE POP POP POP POP JUMP JUMPDEST PUSH0 SWAP1 JUMP JUMPDEST PUSH2 0x3F0 PUSH2 0x3E4 JUMP JUMPDEST PUSH2 0x3FB DUP2 DUP5 DUP5 PUSH2 0x3BF JUMP JUMPDEST POP POP POP JUMP JUMPDEST JUMPDEST DUP2 DUP2 LT ISZERO PUSH2 0x41E JUMPI PUSH2 0x413 PUSH0 DUP3 PUSH2 0x3E8 JUMP JUMPDEST PUSH1 0x1 DUP2 ADD SWAP1 POP PUSH2 0x401 JUMP JUMPDEST POP POP JUMP JUMPDEST PUSH1 0x1F DUP3 GT ISZERO PUSH2 0x463 JUMPI PUSH2 0x434 DUP2 PUSH2 0x30E JUMP JUMPDEST PUSH2 0x43D DUP5 PUSH2 0x320 JUMP JUMPDEST DUP2 ADD PUSH1 0x20 DUP6 LT ISZERO PUSH2 0x44C JUMPI DUP2 SWAP1 POP JUMPDEST PUSH2 0x460 PUSH2 0x458 DUP6 PUSH2 0x320 JUMP JUMPDEST DUP4 ADD DUP3 PUSH2 0x400 JUMP JUMPDEST POP POP JUMPDEST POP POP POP JUMP JUMPDEST PUSH0 DUP3 DUP3 SHR SWAP1 POP SWAP3 SWAP2 POP POP JUMP JUMPDEST PUSH0 PUSH2 0x483 PUSH0 NOT DUP5 PUSH1 0x8 MUL PUSH2 0x468 JUMP JUMPDEST NOT DUP1 DUP4 AND SWAP2 POP POP SWAP3 SWAP2 POP POP JUMP JUMPDEST PUSH0 PUSH2 0x49B DUP4 DUP4 PUSH2 0x474 JUMP JUMPDEST SWAP2 POP DUP3 PUSH1 0x2 MUL DUP3 OR SWAP1 POP SWAP3 SWAP2 POP POP JUMP JUMPDEST PUSH2 0x4B4 DUP3 PUSH2 0x167 JUMP JUMPDEST PUSH8 0xFFFFFFFFFFFFFFFF DUP2 GT ISZERO PUSH2 0x4CD JUMPI PUSH2 0x4CC PUSH2 0x2E1 JUMP JUMPDEST JUMPDEST PUSH2 0x4D7 DUP3 SLOAD PUSH2 0x2B1 JUMP JUMPDEST PUSH2 0x4E2 DUP3 DUP3 DUP6 PUSH2 0x422 JUMP JUMPDEST PUSH0 PUSH1 0x20 SWAP1 POP PUSH1 0x1F DUP4 GT PUSH1 0x1 DUP2 EQ PUSH2 0x513 JUMPI PUSH0 DUP5 ISZERO PUSH2 0x501 JUMPI DUP3 DUP8 ADD MLOAD SWAP1 POP JUMPDEST PUSH2 0x50B DUP6 DUP3 PUSH2 0x490 JUMP JUMPDEST DUP7 SSTORE POP PUSH2 0x572 JUMP JUMPDEST PUSH1 0x1F NOT DUP5 AND PUSH2 0x521 DUP7 PUSH2 0x30E JUMP JUMPDEST PUSH0 JUMPDEST DUP3 DUP2 LT ISZERO PUSH2 0x548 JUMPI DUP5 DUP10 ADD MLOAD DUP3 SSTORE PUSH1 0x1 DUP3 ADD SWAP2 POP PUSH1 0x20 DUP6 ADD SWAP5 POP PUSH1 0x20 DUP2 ADD SWAP1 POP PUSH2 0x523 JUMP JUMPDEST DUP7 DUP4 LT ISZERO PUSH2 0x565 JUMPI DUP5 DUP10 ADD MLOAD PUSH2 0x561 PUSH1 0x1F DUP10 AND DUP3 PUSH2 0x474 JUMP JUMPDEST DUP4 SSTORE POP JUMPDEST PUSH1 0x1 PUSH1 0x2 DUP9 MUL ADD DUP9 SSTORE POP POP POP JUMPDEST POP POP POP POP POP POP JUMP INVALID LOG2 PUSH5 0x6970667358 0x22 SLT KECCAK256 BALANCE CREATE2 0x4E 0xA6 SWAP4 0xA5 0xE9 0xC 0x25 0xDA GASPRICE MLOAD 0xB3 0xE9 0xDA RETURN 0xCE 0xE1 SWAP12 0xF7 0xE1 LOG1 DUP11 0xCC PUSH6 0xDC07FA2C0291 XOR PUSH5 0x736F6C6343 STOP ADDMOD XOR STOP CALLER "
				},
				"gasEstimates": {
					"creation": {
						"codeDepositCost": "291200",
						"executionCost": "infinite",
						"totalCost": "infinite"
					},
					"external": {
						"emps()": "infinite",
						"setValues()": "infinite"
					}
				},
				"methodIdentifiers": {
					"emps()": "5a4c478a",
					"setValues()": "800509d5"
				}
			},
			"storageLayout": {
				"storage": [
					{
						"astId": 11,
						"contract": "contracts/StructDemo.sol:StructDemo",
						"label": "emps",
						"offset": 0,
						"slot": "0",
						"type": "t_struct(Employee)8_storage"
					}
				],
				"types": {
					"t_address": {
						"encoding": "inplace",
						"label": "address",
						"numberOfBytes": "20"
					},
					"t_string_storage": {
						"encoding": "bytes",
						"label": "string",
						"numberOfBytes": "32"
					},
					"t_struct(Employee)8_storage": {
						"encoding": "inplace",
						"label": "struct StructDemo.Employee",
						"members": [
							{
								"astId": 3,
								"contract": "contracts/StructDemo.sol:StructDemo",
								"label": "name",
								"offset": 0,
								"slot": "0",
								"type": "t_string_storage"
							},
							{
								"astId": 5,
								"contract": "contracts/StructDemo.sol:StructDemo",
								"label": "salary",
								"offset": 0,
								"slot": "1",
								"type": "t_uint256"
							},
							{
								"astId": 7,
								"contract": "contracts/StructDemo.sol:StructDemo",
								"label": "acc",
								"offset": 0,
								"slot": "2",
								"type": "t_address"
							}
						],
						"numberOfBytes": "96"
					},
					"t_uint256": {
						"encoding": "inplace",
						"label": "uint256",
						"numberOfBytes": "32"
					}
				}
			},
			"userdoc": {
				"kind": "user",
				"methods": {},
				"version": 1
			}
		}
	}
}