{
	"contracts/variables.sol": {
		"VariablesLearn": {
			"abi": [
				{
					"inputs": [
						{
							"internalType": "uint256",
							"name": "_x",
							"type": "uint256"
						},
						{
							"internalType": "uint256",
							"name": "_y",
							"type": "uint256"
						}
					],
					"name": "getAge",
					"outputs": [
						{
							"internalType": "uint256",
							"name": "",
							"type": "uint256"
						},
						{
							"internalType": "bool",
							"name": "",
							"type": "bool"
						}
					],
					"stateMutability": "pure",
					"type": "function"
				}
			],
			"devdoc": {
				"kind": "dev",
				"methods": {},
				"version": 1
			},
			"evm": {
				"assembly": "    /* \"contracts/variables.sol\":67:355  contract VariablesLearn{... */\n  mstore(0x40, 0x80)\n  callvalue\n  dup1\n  iszero\n  tag_1\n  jumpi\n  0x00\n  dup1\n  revert\ntag_1:\n  pop\n  dataSize(sub_0)\n  dup1\n  dataOffset(sub_0)\n  0x00\n  codecopy\n  0x00\n  return\nstop\n\nsub_0: assembly {\n        /* \"contracts/variables.sol\":67:355  contract VariablesLearn{... */\n      mstore(0x40, 0x80)\n      callvalue\n      dup1\n      iszero\n      tag_1\n      jumpi\n      0x00\n      dup1\n      revert\n    tag_1:\n      pop\n      jumpi(tag_2, lt(calldatasize, 0x04))\n      shr(0xe0, calldataload(0x00))\n      dup1\n      0x7c0c52f0\n      eq\n      tag_3\n      jumpi\n    tag_2:\n      0x00\n      dup1\n      revert\n        /* \"contracts/variables.sol\":140:352  function getAge(uint _x,uint _y) public pure returns(uint, bool){... */\n    tag_3:\n      tag_4\n      0x04\n      dup1\n      calldatasize\n      sub\n      dup2\n      add\n      swap1\n      tag_5\n      swap2\n      swap1\n      tag_6\n      jump\t// in\n    tag_5:\n      tag_7\n      jump\t// in\n    tag_4:\n      mload(0x40)\n      tag_8\n      swap3\n      swap2\n      swap1\n      tag_9\n      jump\t// in\n    tag_8:\n      mload(0x40)\n      dup1\n      swap2\n      sub\n      swap1\n      return\n    tag_7:\n        /* \"contracts/variables.sol\":193:197  uint */\n      0x00\n        /* \"contracts/variables.sol\":199:203  bool */\n      dup1\n        /* \"contracts/variables.sol\":217:225  bool bol */\n      0x00\n        /* \"contracts/variables.sol\":248:250  _y */\n      dup4\n        /* \"contracts/variables.sol\":245:247  _x */\n      dup6\n        /* \"contracts/variables.sol\":245:250  _x+_y */\n      tag_11\n      swap2\n      swap1\n      tag_12\n      jump\t// in\n    tag_11:\n        /* \"contracts/variables.sol\":242:250  _x=_x+_y */\n      swap5\n      pop\n        /* \"contracts/variables.sol\":278:280  30 */\n      0x1e\n        /* \"contracts/variables.sol\":274:276  _x */\n      dup6\n        /* \"contracts/variables.sol\":274:280  _x> 30 */\n      gt\n        /* \"contracts/variables.sol\":271:316  if(_x> 30){... */\n      iszero\n      tag_13\n      jumpi\n        /* \"contracts/variables.sol\":300:304  true */\n      0x01\n        /* \"contracts/variables.sol\":296:304  bol=true */\n      swap1\n      pop\n        /* \"contracts/variables.sol\":271:316  if(_x> 30){... */\n    tag_13:\n        /* \"contracts/variables.sol\":334:336  _x */\n      dup5\n        /* \"contracts/variables.sol\":338:341  bol */\n      dup2\n        /* \"contracts/variables.sol\":326:342  return (_x, bol) */\n      swap3\n      pop\n      swap3\n      pop\n      pop\n        /* \"contracts/variables.sol\":140:352  function getAge(uint _x,uint _y) public pure returns(uint, bool){... */\n      swap3\n      pop\n      swap3\n      swap1\n      pop\n      jump\t// out\n        /* \"#utility.yul\":88:205   */\n    tag_15:\n        /* \"#utility.yul\":197:198   */\n      0x00\n        /* \"#utility.yul\":194:195   */\n      dup1\n        /* \"#utility.yul\":187:199   */\n      revert\n        /* \"#utility.yul\":334:411   */\n    tag_17:\n        /* \"#utility.yul\":371:378   */\n      0x00\n        /* \"#utility.yul\":400:405   */\n      dup2\n        /* \"#utility.yul\":389:405   */\n      swap1\n      pop\n        /* \"#utility.yul\":334:411   */\n      swap2\n      swap1\n      pop\n      jump\t// out\n        /* \"#utility.yul\":417:539   */\n    tag_18:\n        /* \"#utility.yul\":490:514   */\n      tag_30\n        /* \"#utility.yul\":508:513   */\n      dup2\n        /* \"#utility.yul\":490:514   */\n      tag_17\n      jump\t// in\n    tag_30:\n        /* \"#utility.yul\":483:488   */\n      dup2\n        /* \"#utility.yul\":480:515   */\n      eq\n        /* \"#utility.yul\":470:533   */\n      tag_31\n      jumpi\n        /* \"#utility.yul\":529:530   */\n      0x00\n        /* \"#utility.yul\":526:527   */\n      dup1\n        /* \"#utility.yul\":519:531   */\n      revert\n        /* \"#utility.yul\":470:533   */\n    tag_31:\n        /* \"#utility.yul\":417:539   */\n      pop\n      jump\t// out\n        /* \"#utility.yul\":545:684   */\n    tag_19:\n        /* \"#utility.yul\":591:596   */\n      0x00\n        /* \"#utility.yul\":629:635   */\n      dup2\n        /* \"#utility.yul\":616:636   */\n      calldataload\n        /* \"#utility.yul\":607:636   */\n      swap1\n      pop\n        /* \"#utility.yul\":645:678   */\n      tag_33\n        /* \"#utility.yul\":672:677   */\n      dup2\n        /* \"#utility.yul\":645:678   */\n      tag_18\n      jump\t// in\n    tag_33:\n        /* \"#utility.yul\":545:684   */\n      swap3\n      swap2\n      pop\n      pop\n      jump\t// out\n        /* \"#utility.yul\":690:1164   */\n    tag_6:\n        /* \"#utility.yul\":758:764   */\n      0x00\n        /* \"#utility.yul\":766:772   */\n      dup1\n        /* \"#utility.yul\":815:817   */\n      0x40\n        /* \"#utility.yul\":803:812   */\n      dup4\n        /* \"#utility.yul\":794:801   */\n      dup6\n        /* \"#utility.yul\":790:813   */\n      sub\n        /* \"#utility.yul\":786:818   */\n      slt\n        /* \"#utility.yul\":783:902   */\n      iszero\n      tag_35\n      jumpi\n        /* \"#utility.yul\":821:900   */\n      tag_36\n      tag_15\n      jump\t// in\n    tag_36:\n        /* \"#utility.yul\":783:902   */\n    tag_35:\n        /* \"#utility.yul\":941:942   */\n      0x00\n        /* \"#utility.yul\":966:1019   */\n      tag_37\n        /* \"#utility.yul\":1011:1018   */\n      dup6\n        /* \"#utility.yul\":1002:1008   */\n      dup3\n        /* \"#utility.yul\":991:1000   */\n      dup7\n        /* \"#utility.yul\":987:1009   */\n      add\n        /* \"#utility.yul\":966:1019   */\n      tag_19\n      jump\t// in\n    tag_37:\n        /* \"#utility.yul\":956:1019   */\n      swap3\n      pop\n        /* \"#utility.yul\":912:1029   */\n      pop\n        /* \"#utility.yul\":1068:1070   */\n      0x20\n        /* \"#utility.yul\":1094:1147   */\n      tag_38\n        /* \"#utility.yul\":1139:1146   */\n      dup6\n        /* \"#utility.yul\":1130:1136   */\n      dup3\n        /* \"#utility.yul\":1119:1128   */\n      dup7\n        /* \"#utility.yul\":1115:1137   */\n      add\n        /* \"#utility.yul\":1094:1147   */\n      tag_19\n      jump\t// in\n    tag_38:\n        /* \"#utility.yul\":1084:1147   */\n      swap2\n      pop\n        /* \"#utility.yul\":1039:1157   */\n      pop\n        /* \"#utility.yul\":690:1164   */\n      swap3\n      pop\n      swap3\n      swap1\n      pop\n      jump\t// out\n        /* \"#utility.yul\":1170:1288   */\n    tag_20:\n        /* \"#utility.yul\":1257:1281   */\n      tag_40\n        /* \"#utility.yul\":1275:1280   */\n      dup2\n        /* \"#utility.yul\":1257:1281   */\n      tag_17\n      jump\t// in\n    tag_40:\n        /* \"#utility.yul\":1252:1255   */\n      dup3\n        /* \"#utility.yul\":1245:1282   */\n      mstore\n        /* \"#utility.yul\":1170:1288   */\n      pop\n      pop\n      jump\t// out\n        /* \"#utility.yul\":1294:1384   */\n    tag_21:\n        /* \"#utility.yul\":1328:1335   */\n      0x00\n        /* \"#utility.yul\":1371:1376   */\n      dup2\n        /* \"#utility.yul\":1364:1377   */\n      iszero\n        /* \"#utility.yul\":1357:1378   */\n      iszero\n        /* \"#utility.yul\":1346:1378   */\n      swap1\n      pop\n        /* \"#utility.yul\":1294:1384   */\n      swap2\n      swap1\n      pop\n      jump\t// out\n        /* \"#utility.yul\":1390:1499   */\n    tag_22:\n        /* \"#utility.yul\":1471:1492   */\n      tag_43\n        /* \"#utility.yul\":1486:1491   */\n      dup2\n        /* \"#utility.yul\":1471:1492   */\n      tag_21\n      jump\t// in\n    tag_43:\n        /* \"#utility.yul\":1466:1469   */\n      dup3\n        /* \"#utility.yul\":1459:1493   */\n      mstore\n        /* \"#utility.yul\":1390:1499   */\n      pop\n      pop\n      jump\t// out\n        /* \"#utility.yul\":1505:1825   */\n    tag_9:\n        /* \"#utility.yul\":1620:1624   */\n      0x00\n        /* \"#utility.yul\":1658:1660   */\n      0x40\n        /* \"#utility.yul\":1647:1656   */\n      dup3\n        /* \"#utility.yul\":1643:1661   */\n      add\n        /* \"#utility.yul\":1635:1661   */\n      swap1\n      pop\n        /* \"#utility.yul\":1671:1742   */\n      tag_45\n        /* \"#utility.yul\":1739:1740   */\n      0x00\n        /* \"#utility.yul\":1728:1737   */\n      dup4\n        /* \"#utility.yul\":1724:1741   */\n      add\n        /* \"#utility.yul\":1715:1721   */\n      dup6\n        /* \"#utility.yul\":1671:1742   */\n      tag_20\n      jump\t// in\n    tag_45:\n        /* \"#utility.yul\":1752:1818   */\n      tag_46\n        /* \"#utility.yul\":1814:1816   */\n      0x20\n        /* \"#utility.yul\":1803:1812   */\n      dup4\n        /* \"#utility.yul\":1799:1817   */\n      add\n        /* \"#utility.yul\":1790:1796   */\n      dup5\n        /* \"#utility.yul\":1752:1818   */\n      tag_22\n      jump\t// in\n    tag_46:\n        /* \"#utility.yul\":1505:1825   */\n      swap4\n      swap3\n      pop\n      pop\n      pop\n      jump\t// out\n        /* \"#utility.yul\":1831:2011   */\n    tag_23:\n        /* \"#utility.yul\":1879:1956   */\n      0x4e487b7100000000000000000000000000000000000000000000000000000000\n        /* \"#utility.yul\":1876:1877   */\n      0x00\n        /* \"#utility.yul\":1869:1957   */\n      mstore\n        /* \"#utility.yul\":1976:1980   */\n      0x11\n        /* \"#utility.yul\":1973:1974   */\n      0x04\n        /* \"#utility.yul\":1966:1981   */\n      mstore\n        /* \"#utility.yul\":2000:2004   */\n      0x24\n        /* \"#utility.yul\":1997:1998   */\n      0x00\n        /* \"#utility.yul\":1990:2005   */\n      revert\n        /* \"#utility.yul\":2017:2208   */\n    tag_12:\n        /* \"#utility.yul\":2057:2060   */\n      0x00\n        /* \"#utility.yul\":2076:2096   */\n      tag_49\n        /* \"#utility.yul\":2094:2095   */\n      dup3\n        /* \"#utility.yul\":2076:2096   */\n      tag_17\n      jump\t// in\n    tag_49:\n        /* \"#utility.yul\":2071:2096   */\n      swap2\n      pop\n        /* \"#utility.yul\":2110:2130   */\n      tag_50\n        /* \"#utility.yul\":2128:2129   */\n      dup4\n        /* \"#utility.yul\":2110:2130   */\n      tag_17\n      jump\t// in\n    tag_50:\n        /* \"#utility.yul\":2105:2130   */\n      swap3\n      pop\n        /* \"#utility.yul\":2153:2154   */\n      dup3\n        /* \"#utility.yul\":2150:2151   */\n      dup3\n        /* \"#utility.yul\":2146:2155   */\n      add\n        /* \"#utility.yul\":2139:2155   */\n      swap1\n      pop\n        /* \"#utility.yul\":2174:2177   */\n      dup1\n        /* \"#utility.yul\":2171:2172   */\n      dup3\n        /* \"#utility.yul\":2168:2178   */\n      gt\n        /* \"#utility.yul\":2165:2201   */\n      iszero\n      tag_51\n      jumpi\n        /* \"#utility.yul\":2181:2199   */\n      tag_52\n      tag_23\n      jump\t// in\n    tag_52:\n        /* \"#utility.yul\":2165:2201   */\n    tag_51:\n        /* \"#utility.yul\":2017:2208   */\n      swap3\n      swap2\n      pop\n      pop\n      jump\t// out\n\n    auxdata: 0xa26469706673582212204ee988586c762e96c3b461622b9c0e496266877e6f46faf4088bdef73e85566164736f6c63430008180033\n}\n",
				"bytecode": {
					"linkReferences": {},
					"object": "608060405234801561000f575f80fd5b506101e68061001d5f395ff3fe608060405234801561000f575f80fd5b5060043610610029575f3560e01c80637c0c52f01461002d575b5f80fd5b610047600480360381019061004291906100c2565b61005e565b604051610055929190610129565b60405180910390f35b5f805f838561006d919061017d565b9450601e85111561007d57600190505b848192509250509250929050565b5f80fd5b5f819050919050565b6100a18161008f565b81146100ab575f80fd5b50565b5f813590506100bc81610098565b92915050565b5f80604083850312156100d8576100d761008b565b5b5f6100e5858286016100ae565b92505060206100f6858286016100ae565b9150509250929050565b6101098161008f565b82525050565b5f8115159050919050565b6101238161010f565b82525050565b5f60408201905061013c5f830185610100565b610149602083018461011a565b9392505050565b7f4e487b71000000000000000000000000000000000000000000000000000000005f52601160045260245ffd5b5f6101878261008f565b91506101928361008f565b92508282019050808211156101aa576101a9610150565b5b9291505056fea26469706673582212204ee988586c762e96c3b461622b9c0e496266877e6f46faf4088bdef73e85566164736f6c63430008180033",
					"opcodes": "PUSH1 0x80 PUSH1 0x40 MSTORE CALLVALUE DUP1 ISZERO PUSH2 0xF JUMPI PUSH0 DUP1 REVERT JUMPDEST POP PUSH2 0x1E6 DUP1 PUSH2 0x1D PUSH0 CODECOPY PUSH0 RETURN INVALID PUSH1 0x80 PUSH1 0x40 MSTORE CALLVALUE DUP1 ISZERO PUSH2 0xF JUMPI PUSH0 DUP1 REVERT JUMPDEST POP PUSH1 0x4 CALLDATASIZE LT PUSH2 0x29 JUMPI PUSH0 CALLDATALOAD PUSH1 0xE0 SHR DUP1 PUSH4 0x7C0C52F0 EQ PUSH2 0x2D JUMPI JUMPDEST PUSH0 DUP1 REVERT JUMPDEST PUSH2 0x47 PUSH1 0x4 DUP1 CALLDATASIZE SUB DUP2 ADD SWAP1 PUSH2 0x42 SWAP2 SWAP1 PUSH2 0xC2 JUMP JUMPDEST PUSH2 0x5E JUMP JUMPDEST PUSH1 0x40 MLOAD PUSH2 0x55 SWAP3 SWAP2 SWAP1 PUSH2 0x129 JUMP JUMPDEST PUSH1 0x40 MLOAD DUP1 SWAP2 SUB SWAP1 RETURN JUMPDEST PUSH0 DUP1 PUSH0 DUP4 DUP6 PUSH2 0x6D SWAP2 SWAP1 PUSH2 0x17D JUMP JUMPDEST SWAP5 POP PUSH1 0x1E DUP6 GT ISZERO PUSH2 0x7D JUMPI PUSH1 0x1 SWAP1 POP JUMPDEST DUP5 DUP2 SWAP3 POP SWAP3 POP POP SWAP3 POP SWAP3 SWAP1 POP JUMP JUMPDEST PUSH0 DUP1 REVERT JUMPDEST PUSH0 DUP2 SWAP1 POP SWAP2 SWAP1 POP JUMP JUMPDEST PUSH2 0xA1 DUP2 PUSH2 0x8F JUMP JUMPDEST DUP2 EQ PUSH2 0xAB JUMPI PUSH0 DUP1 REVERT JUMPDEST POP JUMP JUMPDEST PUSH0 DUP2 CALLDATALOAD SWAP1 POP PUSH2 0xBC DUP2 PUSH2 0x98 JUMP JUMPDEST SWAP3 SWAP2 POP POP JUMP JUMPDEST PUSH0 DUP1 PUSH1 0x40 DUP4 DUP6 SUB SLT ISZERO PUSH2 0xD8 JUMPI PUSH2 0xD7 PUSH2 0x8B JUMP JUMPDEST JUMPDEST PUSH0 PUSH2 0xE5 DUP6 DUP3 DUP7 ADD PUSH2 0xAE JUMP JUMPDEST SWAP3 POP POP PUSH1 0x20 PUSH2 0xF6 DUP6 DUP3 DUP7 ADD PUSH2 0xAE JUMP JUMPDEST SWAP2 POP POP SWAP3 POP SWAP3 SWAP1 POP JUMP JUMPDEST PUSH2 0x109 DUP2 PUSH2 0x8F JUMP JUMPDEST DUP3 MSTORE POP POP JUMP JUMPDEST PUSH0 DUP2 ISZERO ISZERO SWAP1 POP SWAP2 SWAP1 POP JUMP JUMPDEST PUSH2 0x123 DUP2 PUSH2 0x10F JUMP JUMPDEST DUP3 MSTORE POP POP JUMP JUMPDEST PUSH0 PUSH1 0x40 DUP3 ADD SWAP1 POP PUSH2 0x13C PUSH0 DUP4 ADD DUP6 PUSH2 0x100 JUMP JUMPDEST PUSH2 0x149 PUSH1 0x20 DUP4 ADD DUP5 PUSH2 0x11A JUMP JUMPDEST SWAP4 SWAP3 POP POP POP JUMP JUMPDEST PUSH32 0x4E487B7100000000000000000000000000000000000000000000000000000000 PUSH0 MSTORE PUSH1 0x11 PUSH1 0x4 MSTORE PUSH1 0x24 PUSH0 REVERT JUMPDEST PUSH0 PUSH2 0x187 DUP3 PUSH2 0x8F JUMP JUMPDEST SWAP2 POP PUSH2 0x192 DUP4 PUSH2 0x8F JUMP JUMPDEST SWAP3 POP DUP3 DUP3 ADD SWAP1 POP DUP1 DUP3 GT ISZERO PUSH2 0x1AA JUMPI PUSH2 0x1A9 PUSH2 0x150 JUMP JUMPDEST JUMPDEST SWAP3 SWAP2 POP POP JUMP INVALID LOG2 PUSH5 0x6970667358 0x22 SLT KECCAK256 0x4E 0xE9 DUP9 PC PUSH13 0x762E96C3B461622B9C0E496266 DUP8 PUSH31 0x6F46FAF4088BDEF73E85566164736F6C634300081800330000000000000000 "
				},
				"gasEstimates": {
					"creation": {
						"codeDepositCost": "97200",
						"executionCost": "145",
						"totalCost": "97345"
					},
					"external": {
						"getAge(uint256,uint256)": "infinite"
					}
				},
				"methodIdentifiers": {
					"getAge(uint256,uint256)": "7c0c52f0"
				}
			},
			"storageLayout": {
				"storage": [],
				"types": null
			},
			"userdoc": {
				"kind": "user",
				"methods": {},
				"version": 1
			}
		}
	}
}