{
	"contracts/CallingParentFun.sol": {
		"B": {
			"abi": [
				{
					"anonymous": false,
					"inputs": [
						{
							"indexed": false,
							"internalType": "string",
							"name": "contract_name",
							"type": "string"
						},
						{
							"indexed": false,
							"internalType": "string",
							"name": "function_name",
							"type": "string"
						}
					],
					"name": "log",
					"type": "event"
				},
				{
					"inputs": [],
					"name": "getContract",
					"outputs": [],
					"stateMutability": "nonpayable",
					"type": "function"
				},
				{
					"inputs": [],
					"name": "getFunction",
					"outputs": [],
					"stateMutability": "nonpayable",
					"type": "function"
				}
			],
			"devdoc": {
				"kind": "dev",
				"methods": {},
				"version": 1
			},
			"evm": {
				"assembly": "    /* \"contracts/CallingParentFun.sol\":364:623  contract B is A{... */\n  mstore(0x40, 0x80)\n  callvalue\n  dup1\n  iszero\n  tag_1\n  jumpi\n  0x00\n  dup1\n  revert\ntag_1:\n  pop\n  dataSize(sub_0)\n  dup1\n  dataOffset(sub_0)\n  0x00\n  codecopy\n  0x00\n  return\nstop\n\nsub_0: assembly {\n        /* \"contracts/CallingParentFun.sol\":364:623  contract B is A{... */\n      mstore(0x40, 0x80)\n      callvalue\n      dup1\n      iszero\n      tag_1\n      jumpi\n      0x00\n      dup1\n      revert\n    tag_1:\n      pop\n      jumpi(tag_2, lt(calldatasize, 0x04))\n      shr(0xe0, calldataload(0x00))\n      dup1\n      0x7135ac7b\n      eq\n      tag_3\n      jumpi\n      dup1\n      0x958f85bd\n      eq\n      tag_4\n      jumpi\n    tag_2:\n      0x00\n      dup1\n      revert\n        /* \"contracts/CallingParentFun.sol\":506:619  function getFunction() public virtual override  {... */\n    tag_3:\n      tag_5\n      tag_6\n      jump\t// in\n    tag_5:\n      stop\n        /* \"contracts/CallingParentFun.sol\":386:499  function getContract() public virtual override  {... */\n    tag_4:\n      tag_7\n      tag_8\n      jump\t// in\n    tag_7:\n      stop\n        /* \"contracts/CallingParentFun.sol\":506:619  function getFunction() public virtual override  {... */\n    tag_6:\n        /* \"contracts/CallingParentFun.sol\":570:611  log(\"I am contract B\", \"from function B\") */\n      0x4b5c4277d556d03fbf5ee534fba41dc13982b44f2fa82f1d48fdd8b5b5b692ac\n      mload(0x40)\n      tag_10\n      swap1\n      tag_11\n      jump\t// in\n    tag_10:\n      mload(0x40)\n      dup1\n      swap2\n      sub\n      swap1\n      log1\n        /* \"contracts/CallingParentFun.sol\":506:619  function getFunction() public virtual override  {... */\n      jump\t// out\n        /* \"contracts/CallingParentFun.sol\":386:499  function getContract() public virtual override  {... */\n    tag_8:\n        /* \"contracts/CallingParentFun.sol\":450:491  log(\"I am contract B\", \"from function B\") */\n      0x4b5c4277d556d03fbf5ee534fba41dc13982b44f2fa82f1d48fdd8b5b5b692ac\n      mload(0x40)\n      tag_13\n      swap1\n      tag_11\n      jump\t// in\n    tag_13:\n      mload(0x40)\n      dup1\n      swap2\n      sub\n      swap1\n      log1\n        /* \"contracts/CallingParentFun.sol\":386:499  function getContract() public virtual override  {... */\n      jump\t// out\n        /* \"#utility.yul\":7:176   */\n    tag_14:\n        /* \"#utility.yul\":91:102   */\n      0x00\n        /* \"#utility.yul\":125:131   */\n      dup3\n        /* \"#utility.yul\":120:123   */\n      dup3\n        /* \"#utility.yul\":113:132   */\n      mstore\n        /* \"#utility.yul\":165:169   */\n      0x20\n        /* \"#utility.yul\":160:163   */\n      dup3\n        /* \"#utility.yul\":156:170   */\n      add\n        /* \"#utility.yul\":141:170   */\n      swap1\n      pop\n        /* \"#utility.yul\":7:176   */\n      swap3\n      swap2\n      pop\n      pop\n      jump\t// out\n        /* \"#utility.yul\":182:347   */\n    tag_15:\n        /* \"#utility.yul\":322:339   */\n      0x4920616d20636f6e747261637420420000000000000000000000000000000000\n        /* \"#utility.yul\":318:319   */\n      0x00\n        /* \"#utility.yul\":310:316   */\n      dup3\n        /* \"#utility.yul\":306:320   */\n      add\n        /* \"#utility.yul\":299:340   */\n      mstore\n        /* \"#utility.yul\":182:347   */\n      pop\n      jump\t// out\n        /* \"#utility.yul\":353:719   */\n    tag_16:\n        /* \"#utility.yul\":495:498   */\n      0x00\n        /* \"#utility.yul\":516:583   */\n      tag_23\n        /* \"#utility.yul\":580:582   */\n      0x0f\n        /* \"#utility.yul\":575:578   */\n      dup4\n        /* \"#utility.yul\":516:583   */\n      tag_14\n      jump\t// in\n    tag_23:\n        /* \"#utility.yul\":509:583   */\n      swap2\n      pop\n        /* \"#utility.yul\":592:685   */\n      tag_24\n        /* \"#utility.yul\":681:684   */\n      dup3\n        /* \"#utility.yul\":592:685   */\n      tag_15\n      jump\t// in\n    tag_24:\n        /* \"#utility.yul\":710:712   */\n      0x20\n        /* \"#utility.yul\":705:708   */\n      dup3\n        /* \"#utility.yul\":701:713   */\n      add\n        /* \"#utility.yul\":694:713   */\n      swap1\n      pop\n        /* \"#utility.yul\":353:719   */\n      swap2\n      swap1\n      pop\n      jump\t// out\n        /* \"#utility.yul\":725:890   */\n    tag_17:\n        /* \"#utility.yul\":865:882   */\n      0x66726f6d2066756e6374696f6e20420000000000000000000000000000000000\n        /* \"#utility.yul\":861:862   */\n      0x00\n        /* \"#utility.yul\":853:859   */\n      dup3\n        /* \"#utility.yul\":849:863   */\n      add\n        /* \"#utility.yul\":842:883   */\n      mstore\n        /* \"#utility.yul\":725:890   */\n      pop\n      jump\t// out\n        /* \"#utility.yul\":896:1262   */\n    tag_18:\n        /* \"#utility.yul\":1038:1041   */\n      0x00\n        /* \"#utility.yul\":1059:1126   */\n      tag_27\n        /* \"#utility.yul\":1123:1125   */\n      0x0f\n        /* \"#utility.yul\":1118:1121   */\n      dup4\n        /* \"#utility.yul\":1059:1126   */\n      tag_14\n      jump\t// in\n    tag_27:\n        /* \"#utility.yul\":1052:1126   */\n      swap2\n      pop\n        /* \"#utility.yul\":1135:1228   */\n      tag_28\n        /* \"#utility.yul\":1224:1227   */\n      dup3\n        /* \"#utility.yul\":1135:1228   */\n      tag_17\n      jump\t// in\n    tag_28:\n        /* \"#utility.yul\":1253:1255   */\n      0x20\n        /* \"#utility.yul\":1248:1251   */\n      dup3\n        /* \"#utility.yul\":1244:1256   */\n      add\n        /* \"#utility.yul\":1237:1256   */\n      swap1\n      pop\n        /* \"#utility.yul\":896:1262   */\n      swap2\n      swap1\n      pop\n      jump\t// out\n        /* \"#utility.yul\":1268:1994   */\n    tag_11:\n        /* \"#utility.yul\":1535:1539   */\n      0x00\n        /* \"#utility.yul\":1573:1575   */\n      0x40\n        /* \"#utility.yul\":1562:1571   */\n      dup3\n        /* \"#utility.yul\":1558:1576   */\n      add\n        /* \"#utility.yul\":1550:1576   */\n      swap1\n      pop\n        /* \"#utility.yul\":1622:1631   */\n      dup2\n        /* \"#utility.yul\":1616:1620   */\n      dup2\n        /* \"#utility.yul\":1612:1632   */\n      sub\n        /* \"#utility.yul\":1608:1609   */\n      0x00\n        /* \"#utility.yul\":1597:1606   */\n      dup4\n        /* \"#utility.yul\":1593:1610   */\n      add\n        /* \"#utility.yul\":1586:1633   */\n      mstore\n        /* \"#utility.yul\":1650:1781   */\n      tag_30\n        /* \"#utility.yul\":1776:1780   */\n      dup2\n        /* \"#utility.yul\":1650:1781   */\n      tag_16\n      jump\t// in\n    tag_30:\n        /* \"#utility.yul\":1642:1781   */\n      swap1\n      pop\n        /* \"#utility.yul\":1828:1837   */\n      dup2\n        /* \"#utility.yul\":1822:1826   */\n      dup2\n        /* \"#utility.yul\":1818:1838   */\n      sub\n        /* \"#utility.yul\":1813:1815   */\n      0x20\n        /* \"#utility.yul\":1802:1811   */\n      dup4\n        /* \"#utility.yul\":1798:1816   */\n      add\n        /* \"#utility.yul\":1791:1839   */\n      mstore\n        /* \"#utility.yul\":1856:1987   */\n      tag_31\n        /* \"#utility.yul\":1982:1986   */\n      dup2\n        /* \"#utility.yul\":1856:1987   */\n      tag_18\n      jump\t// in\n    tag_31:\n        /* \"#utility.yul\":1848:1987   */\n      swap1\n      pop\n        /* \"#utility.yul\":1268:1994   */\n      swap2\n      swap1\n      pop\n      jump\t// out\n\n    auxdata: 0xa2646970667358221220ad612e19877468297774344abde4b131bf2f21073069d20708d73cb3411cd36464736f6c63430008180033\n}\n",
				"bytecode": {
					"linkReferences": {},
					"object": "608060405234801561000f575f80fd5b506101c58061001d5f395ff3fe608060405234801561000f575f80fd5b5060043610610034575f3560e01c80637135ac7b14610038578063958f85bd14610042575b5f80fd5b61004061004c565b005b61004a610083565b005b7f4b5c4277d556d03fbf5ee534fba41dc13982b44f2fa82f1d48fdd8b5b5b692ac6040516100799061015e565b60405180910390a1565b7f4b5c4277d556d03fbf5ee534fba41dc13982b44f2fa82f1d48fdd8b5b5b692ac6040516100b09061015e565b60405180910390a1565b5f82825260208201905092915050565b7f4920616d20636f6e7472616374204200000000000000000000000000000000005f82015250565b5f6100fe600f836100ba565b9150610109826100ca565b602082019050919050565b7f66726f6d2066756e6374696f6e204200000000000000000000000000000000005f82015250565b5f610148600f836100ba565b915061015382610114565b602082019050919050565b5f6040820190508181035f830152610175816100f2565b905081810360208301526101888161013c565b905091905056fea2646970667358221220ad612e19877468297774344abde4b131bf2f21073069d20708d73cb3411cd36464736f6c63430008180033",
					"opcodes": "PUSH1 0x80 PUSH1 0x40 MSTORE CALLVALUE DUP1 ISZERO PUSH2 0xF JUMPI PUSH0 DUP1 REVERT JUMPDEST POP PUSH2 0x1C5 DUP1 PUSH2 0x1D PUSH0 CODECOPY PUSH0 RETURN INVALID PUSH1 0x80 PUSH1 0x40 MSTORE CALLVALUE DUP1 ISZERO PUSH2 0xF JUMPI PUSH0 DUP1 REVERT JUMPDEST POP PUSH1 0x4 CALLDATASIZE LT PUSH2 0x34 JUMPI PUSH0 CALLDATALOAD PUSH1 0xE0 SHR DUP1 PUSH4 0x7135AC7B EQ PUSH2 0x38 JUMPI DUP1 PUSH4 0x958F85BD EQ PUSH2 0x42 JUMPI JUMPDEST PUSH0 DUP1 REVERT JUMPDEST PUSH2 0x40 PUSH2 0x4C JUMP JUMPDEST STOP JUMPDEST PUSH2 0x4A PUSH2 0x83 JUMP JUMPDEST STOP JUMPDEST PUSH32 0x4B5C4277D556D03FBF5EE534FBA41DC13982B44F2FA82F1D48FDD8B5B5B692AC PUSH1 0x40 MLOAD PUSH2 0x79 SWAP1 PUSH2 0x15E JUMP JUMPDEST PUSH1 0x40 MLOAD DUP1 SWAP2 SUB SWAP1 LOG1 JUMP JUMPDEST PUSH32 0x4B5C4277D556D03FBF5EE534FBA41DC13982B44F2FA82F1D48FDD8B5B5B692AC PUSH1 0x40 MLOAD PUSH2 0xB0 SWAP1 PUSH2 0x15E JUMP JUMPDEST PUSH1 0x40 MLOAD DUP1 SWAP2 SUB SWAP1 LOG1 JUMP JUMPDEST PUSH0 DUP3 DUP3 MSTORE PUSH1 0x20 DUP3 ADD SWAP1 POP SWAP3 SWAP2 POP POP JUMP JUMPDEST PUSH32 0x4920616D20636F6E747261637420420000000000000000000000000000000000 PUSH0 DUP3 ADD MSTORE POP JUMP JUMPDEST PUSH0 PUSH2 0xFE PUSH1 0xF DUP4 PUSH2 0xBA JUMP JUMPDEST SWAP2 POP PUSH2 0x109 DUP3 PUSH2 0xCA JUMP JUMPDEST PUSH1 0x20 DUP3 ADD SWAP1 POP SWAP2 SWAP1 POP JUMP JUMPDEST PUSH32 0x66726F6D2066756E6374696F6E20420000000000000000000000000000000000 PUSH0 DUP3 ADD MSTORE POP JUMP JUMPDEST PUSH0 PUSH2 0x148 PUSH1 0xF DUP4 PUSH2 0xBA JUMP JUMPDEST SWAP2 POP PUSH2 0x153 DUP3 PUSH2 0x114 JUMP JUMPDEST PUSH1 0x20 DUP3 ADD SWAP1 POP SWAP2 SWAP1 POP JUMP JUMPDEST PUSH0 PUSH1 0x40 DUP3 ADD SWAP1 POP DUP2 DUP2 SUB PUSH0 DUP4 ADD MSTORE PUSH2 0x175 DUP2 PUSH2 0xF2 JUMP JUMPDEST SWAP1 POP DUP2 DUP2 SUB PUSH1 0x20 DUP4 ADD MSTORE PUSH2 0x188 DUP2 PUSH2 0x13C JUMP JUMPDEST SWAP1 POP SWAP2 SWAP1 POP JUMP INVALID LOG2 PUSH5 0x6970667358 0x22 SLT KECCAK256 0xAD PUSH2 0x2E19 DUP8 PUSH21 0x68297774344ABDE4B131BF2F21073069D20708D73C 0xB3 COINBASE SHR 0xD3 PUSH5 0x64736F6C63 NUMBER STOP ADDMOD XOR STOP CALLER "
				},
				"gasEstimates": {
					"creation": {
						"codeDepositCost": "90600",
						"executionCost": "139",
						"totalCost": "90739"
					},
					"external": {
						"getContract()": "infinite",
						"getFunction()": "infinite"
					}
				},
				"methodIdentifiers": {
					"getContract()": "958f85bd",
					"getFunction()": "7135ac7b"
				}
			},
			"storageLayout": {
				"storage": [],
				"types": null
			},
			"userdoc": {
				"kind": "user",
				"methods": {},
				"version": 1
			}
		}
	}
}