{
	"contracts/continueBreak.sol": {
		"ContinueBreak": {
			"abi": [
				{
					"inputs": [],
					"name": "notPrintFive",
					"outputs": [
						{
							"internalType": "uint256",
							"name": "",
							"type": "uint256"
						}
					],
					"stateMutability": "pure",
					"type": "function"
				}
			],
			"devdoc": {
				"kind": "dev",
				"methods": {},
				"version": 1
			},
			"evm": {
				"assembly": "    /* \"contracts/continueBreak.sol\":65:372  contract ContinueBreak{... */\n  mstore(0x40, 0x80)\n  callvalue\n  dup1\n  iszero\n  tag_1\n  jumpi\n  0x00\n  dup1\n  revert\ntag_1:\n  pop\n  dataSize(sub_0)\n  dup1\n  dataOffset(sub_0)\n  0x00\n  codecopy\n  0x00\n  return\nstop\n\nsub_0: assembly {\n        /* \"contracts/continueBreak.sol\":65:372  contract ContinueBreak{... */\n      mstore(0x40, 0x80)\n      callvalue\n      dup1\n      iszero\n      tag_1\n      jumpi\n      0x00\n      dup1\n      revert\n    tag_1:\n      pop\n      jumpi(tag_2, lt(calldatasize, 0x04))\n      shr(0xe0, calldataload(0x00))\n      dup1\n      0x6ce1ec7f\n      eq\n      tag_3\n      jumpi\n    tag_2:\n      0x00\n      dup1\n      revert\n        /* \"contracts/continueBreak.sol\":130:362  function notPrintFive() public pure returns(uint){... */\n    tag_3:\n      tag_4\n      tag_5\n      jump\t// in\n    tag_4:\n      mload(0x40)\n      tag_6\n      swap2\n      swap1\n      tag_7\n      jump\t// in\n    tag_6:\n      mload(0x40)\n      dup1\n      swap2\n      sub\n      swap1\n      return\n    tag_5:\n        /* \"contracts/continueBreak.sol\":174:178  uint */\n      0x00\n        /* \"contracts/continueBreak.sol\":190:200  uint count */\n      dup1\n        /* \"contracts/continueBreak.sol\":201:202  0 */\n      0x00\n        /* \"contracts/continueBreak.sol\":190:202  uint count=0 */\n      swap1\n      pop\n        /* \"contracts/continueBreak.sol\":217:223  uint i */\n      0x00\n        /* \"contracts/continueBreak.sol\":224:225  1 */\n      0x01\n        /* \"contracts/continueBreak.sol\":217:225  uint i=1 */\n      swap1\n      pop\n        /* \"contracts/continueBreak.sol\":213:332  for(uint i=1;i<10;i++){... */\n    tag_9:\n        /* \"contracts/continueBreak.sol\":228:230  10 */\n      0x0a\n        /* \"contracts/continueBreak.sol\":226:227  i */\n      dup2\n        /* \"contracts/continueBreak.sol\":226:230  i<10 */\n      lt\n        /* \"contracts/continueBreak.sol\":213:332  for(uint i=1;i<10;i++){... */\n      iszero\n      tag_10\n      jumpi\n        /* \"contracts/continueBreak.sol\":256:257  5 */\n      0x05\n        /* \"contracts/continueBreak.sol\":253:254  i */\n      dup2\n        /* \"contracts/continueBreak.sol\":253:257  i==5 */\n      sub\n        /* \"contracts/continueBreak.sol\":250:298  if(i==5){... */\n      iszero\n        /* \"contracts/continueBreak.sol\":277:282  break */\n      tag_10\n        /* \"contracts/continueBreak.sol\":250:298  if(i==5){... */\n      jumpi\n        /* \"contracts/continueBreak.sol\":319:320  1 */\n      0x01\n        /* \"contracts/continueBreak.sol\":312:320  count+=1 */\n      dup3\n      tag_13\n      swap2\n      swap1\n      tag_14\n      jump\t// in\n    tag_13:\n      swap2\n      pop\n        /* \"contracts/continueBreak.sol\":231:234  i++ */\n      dup1\n      dup1\n      0x01\n      add\n      swap2\n      pop\n      pop\n        /* \"contracts/continueBreak.sol\":213:332  for(uint i=1;i<10;i++){... */\n      jump(tag_9)\n    tag_10:\n      pop\n        /* \"contracts/continueBreak.sol\":349:354  count */\n      dup1\n        /* \"contracts/continueBreak.sol\":342:354  return count */\n      swap2\n      pop\n      pop\n        /* \"contracts/continueBreak.sol\":130:362  function notPrintFive() public pure returns(uint){... */\n      swap1\n      jump\t// out\n        /* \"#utility.yul\":7:84   */\n    tag_15:\n        /* \"#utility.yul\":44:51   */\n      0x00\n        /* \"#utility.yul\":73:78   */\n      dup2\n        /* \"#utility.yul\":62:78   */\n      swap1\n      pop\n        /* \"#utility.yul\":7:84   */\n      swap2\n      swap1\n      pop\n      jump\t// out\n        /* \"#utility.yul\":90:208   */\n    tag_16:\n        /* \"#utility.yul\":177:201   */\n      tag_21\n        /* \"#utility.yul\":195:200   */\n      dup2\n        /* \"#utility.yul\":177:201   */\n      tag_15\n      jump\t// in\n    tag_21:\n        /* \"#utility.yul\":172:175   */\n      dup3\n        /* \"#utility.yul\":165:202   */\n      mstore\n        /* \"#utility.yul\":90:208   */\n      pop\n      pop\n      jump\t// out\n        /* \"#utility.yul\":214:436   */\n    tag_7:\n        /* \"#utility.yul\":307:311   */\n      0x00\n        /* \"#utility.yul\":345:347   */\n      0x20\n        /* \"#utility.yul\":334:343   */\n      dup3\n        /* \"#utility.yul\":330:348   */\n      add\n        /* \"#utility.yul\":322:348   */\n      swap1\n      pop\n        /* \"#utility.yul\":358:429   */\n      tag_23\n        /* \"#utility.yul\":426:427   */\n      0x00\n        /* \"#utility.yul\":415:424   */\n      dup4\n        /* \"#utility.yul\":411:428   */\n      add\n        /* \"#utility.yul\":402:408   */\n      dup5\n        /* \"#utility.yul\":358:429   */\n      tag_16\n      jump\t// in\n    tag_23:\n        /* \"#utility.yul\":214:436   */\n      swap3\n      swap2\n      pop\n      pop\n      jump\t// out\n        /* \"#utility.yul\":442:622   */\n    tag_17:\n        /* \"#utility.yul\":490:567   */\n      0x4e487b7100000000000000000000000000000000000000000000000000000000\n        /* \"#utility.yul\":487:488   */\n      0x00\n        /* \"#utility.yul\":480:568   */\n      mstore\n        /* \"#utility.yul\":587:591   */\n      0x11\n        /* \"#utility.yul\":584:585   */\n      0x04\n        /* \"#utility.yul\":577:592   */\n      mstore\n        /* \"#utility.yul\":611:615   */\n      0x24\n        /* \"#utility.yul\":608:609   */\n      0x00\n        /* \"#utility.yul\":601:616   */\n      revert\n        /* \"#utility.yul\":628:819   */\n    tag_14:\n        /* \"#utility.yul\":668:671   */\n      0x00\n        /* \"#utility.yul\":687:707   */\n      tag_26\n        /* \"#utility.yul\":705:706   */\n      dup3\n        /* \"#utility.yul\":687:707   */\n      tag_15\n      jump\t// in\n    tag_26:\n        /* \"#utility.yul\":682:707   */\n      swap2\n      pop\n        /* \"#utility.yul\":721:741   */\n      tag_27\n        /* \"#utility.yul\":739:740   */\n      dup4\n        /* \"#utility.yul\":721:741   */\n      tag_15\n      jump\t// in\n    tag_27:\n        /* \"#utility.yul\":716:741   */\n      swap3\n      pop\n        /* \"#utility.yul\":764:765   */\n      dup3\n        /* \"#utility.yul\":761:762   */\n      dup3\n        /* \"#utility.yul\":757:766   */\n      add\n        /* \"#utility.yul\":750:766   */\n      swap1\n      pop\n        /* \"#utility.yul\":785:788   */\n      dup1\n        /* \"#utility.yul\":782:783   */\n      dup3\n        /* \"#utility.yul\":779:789   */\n      gt\n        /* \"#utility.yul\":776:812   */\n      iszero\n      tag_28\n      jumpi\n        /* \"#utility.yul\":792:810   */\n      tag_29\n      tag_17\n      jump\t// in\n    tag_29:\n        /* \"#utility.yul\":776:812   */\n    tag_28:\n        /* \"#utility.yul\":628:819   */\n      swap3\n      swap2\n      pop\n      pop\n      jump\t// out\n\n    auxdata: 0xa2646970667358221220d59baf106cf3a6ca14b3a65969c53dd6755561d776d63f26a03e9ce9a305be1764736f6c63430008180033\n}\n",
				"bytecode": {
					"linkReferences": {},
					"object": "608060405234801561000f575f80fd5b506101538061001d5f395ff3fe608060405234801561000f575f80fd5b5060043610610029575f3560e01c80636ce1ec7f1461002d575b5f80fd5b61003561004b565b60405161004291906100a4565b60405180910390f35b5f805f90505f600190505b600a8110156100845760058103156100845760018261007591906100ea565b91508080600101915050610056565b508091505090565b5f819050919050565b61009e8161008c565b82525050565b5f6020820190506100b75f830184610095565b92915050565b7f4e487b71000000000000000000000000000000000000000000000000000000005f52601160045260245ffd5b5f6100f48261008c565b91506100ff8361008c565b9250828201905080821115610117576101166100bd565b5b9291505056fea2646970667358221220d59baf106cf3a6ca14b3a65969c53dd6755561d776d63f26a03e9ce9a305be1764736f6c63430008180033",
					"opcodes": "PUSH1 0x80 PUSH1 0x40 MSTORE CALLVALUE DUP1 ISZERO PUSH2 0xF JUMPI PUSH0 DUP1 REVERT JUMPDEST POP PUSH2 0x153 DUP1 PUSH2 0x1D PUSH0 CODECOPY PUSH0 RETURN INVALID PUSH1 0x80 PUSH1 0x40 MSTORE CALLVALUE DUP1 ISZERO PUSH2 0xF JUMPI PUSH0 DUP1 REVERT JUMPDEST POP PUSH1 0x4 CALLDATASIZE LT PUSH2 0x29 JUMPI PUSH0 CALLDATALOAD PUSH1 0xE0 SHR DUP1 PUSH4 0x6CE1EC7F EQ PUSH2 0x2D JUMPI JUMPDEST PUSH0 DUP1 REVERT JUMPDEST PUSH2 0x35 PUSH2 0x4B JUMP JUMPDEST PUSH1 0x40 MLOAD PUSH2 0x42 SWAP2 SWAP1 PUSH2 0xA4 JUMP JUMPDEST PUSH1 0x40 MLOAD DUP1 SWAP2 SUB SWAP1 RETURN JUMPDEST PUSH0 DUP1 PUSH0 SWAP1 POP PUSH0 PUSH1 0x1 SWAP1 POP JUMPDEST PUSH1 0xA DUP2 LT ISZERO PUSH2 0x84 JUMPI PUSH1 0x5 DUP2 SUB ISZERO PUSH2 0x84 JUMPI PUSH1 0x1 DUP3 PUSH2 0x75 SWAP2 SWAP1 PUSH2 0xEA JUMP JUMPDEST SWAP2 POP DUP1 DUP1 PUSH1 0x1 ADD SWAP2 POP POP PUSH2 0x56 JUMP JUMPDEST POP DUP1 SWAP2 POP POP SWAP1 JUMP JUMPDEST PUSH0 DUP2 SWAP1 POP SWAP2 SWAP1 POP JUMP JUMPDEST PUSH2 0x9E DUP2 PUSH2 0x8C JUMP JUMPDEST DUP3 MSTORE POP POP JUMP JUMPDEST PUSH0 PUSH1 0x20 DUP3 ADD SWAP1 POP PUSH2 0xB7 PUSH0 DUP4 ADD DUP5 PUSH2 0x95 JUMP JUMPDEST SWAP3 SWAP2 POP POP JUMP JUMPDEST PUSH32 0x4E487B7100000000000000000000000000000000000000000000000000000000 PUSH0 MSTORE PUSH1 0x11 PUSH1 0x4 MSTORE PUSH1 0x24 PUSH0 REVERT JUMPDEST PUSH0 PUSH2 0xF4 DUP3 PUSH2 0x8C JUMP JUMPDEST SWAP2 POP PUSH2 0xFF DUP4 PUSH2 0x8C JUMP JUMPDEST SWAP3 POP DUP3 DUP3 ADD SWAP1 POP DUP1 DUP3 GT ISZERO PUSH2 0x117 JUMPI PUSH2 0x116 PUSH2 0xBD JUMP JUMPDEST JUMPDEST SWAP3 SWAP2 POP POP JUMP INVALID LOG2 PUSH5 0x6970667358 0x22 SLT KECCAK256 0xD5 SWAP12 0xAF LT PUSH13 0xF3A6CA14B3A65969C53DD67555 PUSH2 0xD776 0xD6 EXTCODEHASH 0x26 LOG0 RETURNDATACOPY SWAP13 0xE9 LOG3 SDIV 0xBE OR PUSH5 0x736F6C6343 STOP ADDMOD XOR STOP CALLER "
				},
				"gasEstimates": {
					"creation": {
						"codeDepositCost": "67800",
						"executionCost": "115",
						"totalCost": "67915"
					},
					"external": {
						"notPrintFive()": "infinite"
					}
				},
				"methodIdentifiers": {
					"notPrintFive()": "6ce1ec7f"
				}
			},
			"storageLayout": {
				"storage": [],
				"types": null
			},
			"userdoc": {
				"kind": "user",
				"methods": {},
				"version": 1
			}
		}
	}
}