{
	"contracts/Require.sol": {
		"RequireSol": {
			"abi": [
				{
					"inputs": [],
					"name": "age",
					"outputs": [
						{
							"internalType": "uint256",
							"name": "",
							"type": "uint256"
						}
					],
					"stateMutability": "view",
					"type": "function"
				},
				{
					"inputs": [
						{
							"internalType": "uint256",
							"name": "_x",
							"type": "uint256"
						}
					],
					"name": "setAge",
					"outputs": [],
					"stateMutability": "nonpayable",
					"type": "function"
				}
			],
			"devdoc": {
				"kind": "dev",
				"methods": {},
				"version": 1
			},
			"evm": {
				"assembly": "    /* \"contracts/Require.sol\":67:233  contract RequireSol{... */\n  mstore(0x40, 0x80)\n    /* \"contracts/Require.sol\":109:111  25 */\n  0x19\n    /* \"contracts/Require.sol\":93:111  uint public age=25 */\n  0x00\n  sstore\n    /* \"contracts/Require.sol\":67:233  contract RequireSol{... */\n  callvalue\n  dup1\n  iszero\n  tag_1\n  jumpi\n  0x00\n  dup1\n  revert\ntag_1:\n  pop\n  dataSize(sub_0)\n  dup1\n  dataOffset(sub_0)\n  0x00\n  codecopy\n  0x00\n  return\nstop\n\nsub_0: assembly {\n        /* \"contracts/Require.sol\":67:233  contract RequireSol{... */\n      mstore(0x40, 0x80)\n      callvalue\n      dup1\n      iszero\n      tag_1\n      jumpi\n      0x00\n      dup1\n      revert\n    tag_1:\n      pop\n      jumpi(tag_2, lt(calldatasize, 0x04))\n      shr(0xe0, calldataload(0x00))\n      dup1\n      0x262a9dff\n      eq\n      tag_3\n      jumpi\n      dup1\n      0xd5dcf127\n      eq\n      tag_4\n      jumpi\n    tag_2:\n      0x00\n      dup1\n      revert\n        /* \"contracts/Require.sol\":93:111  uint public age=25 */\n    tag_3:\n      tag_5\n      tag_6\n      jump\t// in\n    tag_5:\n      mload(0x40)\n      tag_7\n      swap2\n      swap1\n      tag_8\n      jump\t// in\n    tag_7:\n      mload(0x40)\n      dup1\n      swap2\n      sub\n      swap1\n      return\n        /* \"contracts/Require.sol\":120:230  function setAge(uint _x) public{... */\n    tag_4:\n      tag_9\n      0x04\n      dup1\n      calldatasize\n      sub\n      dup2\n      add\n      swap1\n      tag_10\n      swap2\n      swap1\n      tag_11\n      jump\t// in\n    tag_10:\n      tag_12\n      jump\t// in\n    tag_9:\n      stop\n        /* \"contracts/Require.sol\":93:111  uint public age=25 */\n    tag_6:\n      sload(0x00)\n      dup2\n      jump\t// out\n        /* \"contracts/Require.sol\":120:230  function setAge(uint _x) public{... */\n    tag_12:\n        /* \"contracts/Require.sol\":167:169  _x */\n      dup1\n        /* \"contracts/Require.sol\":162:165  age */\n      0x00\n      dup1\n        /* \"contracts/Require.sol\":162:169  age+=_x */\n      dup3\n      dup3\n      sload\n      tag_14\n      swap2\n      swap1\n      tag_15\n      jump\t// in\n    tag_14:\n      swap3\n      pop\n      pop\n      dup2\n      swap1\n      sstore\n      pop\n        /* \"contracts/Require.sol\":192:194  32 */\n      0x20\n        /* \"contracts/Require.sol\":188:191  age */\n      sload(0x00)\n        /* \"contracts/Require.sol\":188:194  age>32 */\n      gt\n        /* \"contracts/Require.sol\":180:222  require(age>32,\"Age must be less than 32\") */\n      tag_16\n      jumpi\n      mload(0x40)\n      0x08c379a000000000000000000000000000000000000000000000000000000000\n      dup2\n      mstore\n      0x04\n      add\n      tag_17\n      swap1\n      tag_18\n      jump\t// in\n    tag_17:\n      mload(0x40)\n      dup1\n      swap2\n      sub\n      swap1\n      revert\n    tag_16:\n        /* \"contracts/Require.sol\":120:230  function setAge(uint _x) public{... */\n      pop\n      jump\t// out\n        /* \"#utility.yul\":7:84   */\n    tag_19:\n        /* \"#utility.yul\":44:51   */\n      0x00\n        /* \"#utility.yul\":73:78   */\n      dup2\n        /* \"#utility.yul\":62:78   */\n      swap1\n      pop\n        /* \"#utility.yul\":7:84   */\n      swap2\n      swap1\n      pop\n      jump\t// out\n        /* \"#utility.yul\":90:208   */\n    tag_20:\n        /* \"#utility.yul\":177:201   */\n      tag_33\n        /* \"#utility.yul\":195:200   */\n      dup2\n        /* \"#utility.yul\":177:201   */\n      tag_19\n      jump\t// in\n    tag_33:\n        /* \"#utility.yul\":172:175   */\n      dup3\n        /* \"#utility.yul\":165:202   */\n      mstore\n        /* \"#utility.yul\":90:208   */\n      pop\n      pop\n      jump\t// out\n        /* \"#utility.yul\":214:436   */\n    tag_8:\n        /* \"#utility.yul\":307:311   */\n      0x00\n        /* \"#utility.yul\":345:347   */\n      0x20\n        /* \"#utility.yul\":334:343   */\n      dup3\n        /* \"#utility.yul\":330:348   */\n      add\n        /* \"#utility.yul\":322:348   */\n      swap1\n      pop\n        /* \"#utility.yul\":358:429   */\n      tag_35\n        /* \"#utility.yul\":426:427   */\n      0x00\n        /* \"#utility.yul\":415:424   */\n      dup4\n        /* \"#utility.yul\":411:428   */\n      add\n        /* \"#utility.yul\":402:408   */\n      dup5\n        /* \"#utility.yul\":358:429   */\n      tag_20\n      jump\t// in\n    tag_35:\n        /* \"#utility.yul\":214:436   */\n      swap3\n      swap2\n      pop\n      pop\n      jump\t// out\n        /* \"#utility.yul\":523:640   */\n    tag_22:\n        /* \"#utility.yul\":632:633   */\n      0x00\n        /* \"#utility.yul\":629:630   */\n      dup1\n        /* \"#utility.yul\":622:634   */\n      revert\n        /* \"#utility.yul\":769:891   */\n    tag_24:\n        /* \"#utility.yul\":842:866   */\n      tag_40\n        /* \"#utility.yul\":860:865   */\n      dup2\n        /* \"#utility.yul\":842:866   */\n      tag_19\n      jump\t// in\n    tag_40:\n        /* \"#utility.yul\":835:840   */\n      dup2\n        /* \"#utility.yul\":832:867   */\n      eq\n        /* \"#utility.yul\":822:885   */\n      tag_41\n      jumpi\n        /* \"#utility.yul\":881:882   */\n      0x00\n        /* \"#utility.yul\":878:879   */\n      dup1\n        /* \"#utility.yul\":871:883   */\n      revert\n        /* \"#utility.yul\":822:885   */\n    tag_41:\n        /* \"#utility.yul\":769:891   */\n      pop\n      jump\t// out\n        /* \"#utility.yul\":897:1036   */\n    tag_25:\n        /* \"#utility.yul\":943:948   */\n      0x00\n        /* \"#utility.yul\":981:987   */\n      dup2\n        /* \"#utility.yul\":968:988   */\n      calldataload\n        /* \"#utility.yul\":959:988   */\n      swap1\n      pop\n        /* \"#utility.yul\":997:1030   */\n      tag_43\n        /* \"#utility.yul\":1024:1029   */\n      dup2\n        /* \"#utility.yul\":997:1030   */\n      tag_24\n      jump\t// in\n    tag_43:\n        /* \"#utility.yul\":897:1036   */\n      swap3\n      swap2\n      pop\n      pop\n      jump\t// out\n        /* \"#utility.yul\":1042:1371   */\n    tag_11:\n        /* \"#utility.yul\":1101:1107   */\n      0x00\n        /* \"#utility.yul\":1150:1152   */\n      0x20\n        /* \"#utility.yul\":1138:1147   */\n      dup3\n        /* \"#utility.yul\":1129:1136   */\n      dup5\n        /* \"#utility.yul\":1125:1148   */\n      sub\n        /* \"#utility.yul\":1121:1153   */\n      slt\n        /* \"#utility.yul\":1118:1237   */\n      iszero\n      tag_45\n      jumpi\n        /* \"#utility.yul\":1156:1235   */\n      tag_46\n      tag_22\n      jump\t// in\n    tag_46:\n        /* \"#utility.yul\":1118:1237   */\n    tag_45:\n        /* \"#utility.yul\":1276:1277   */\n      0x00\n        /* \"#utility.yul\":1301:1354   */\n      tag_47\n        /* \"#utility.yul\":1346:1353   */\n      dup5\n        /* \"#utility.yul\":1337:1343   */\n      dup3\n        /* \"#utility.yul\":1326:1335   */\n      dup6\n        /* \"#utility.yul\":1322:1344   */\n      add\n        /* \"#utility.yul\":1301:1354   */\n      tag_25\n      jump\t// in\n    tag_47:\n        /* \"#utility.yul\":1291:1354   */\n      swap2\n      pop\n        /* \"#utility.yul\":1247:1364   */\n      pop\n        /* \"#utility.yul\":1042:1371   */\n      swap3\n      swap2\n      pop\n      pop\n      jump\t// out\n        /* \"#utility.yul\":1377:1557   */\n    tag_26:\n        /* \"#utility.yul\":1425:1502   */\n      0x4e487b7100000000000000000000000000000000000000000000000000000000\n        /* \"#utility.yul\":1422:1423   */\n      0x00\n        /* \"#utility.yul\":1415:1503   */\n      mstore\n        /* \"#utility.yul\":1522:1526   */\n      0x11\n        /* \"#utility.yul\":1519:1520   */\n      0x04\n        /* \"#utility.yul\":1512:1527   */\n      mstore\n        /* \"#utility.yul\":1546:1550   */\n      0x24\n        /* \"#utility.yul\":1543:1544   */\n      0x00\n        /* \"#utility.yul\":1536:1551   */\n      revert\n        /* \"#utility.yul\":1563:1754   */\n    tag_15:\n        /* \"#utility.yul\":1603:1606   */\n      0x00\n        /* \"#utility.yul\":1622:1642   */\n      tag_50\n        /* \"#utility.yul\":1640:1641   */\n      dup3\n        /* \"#utility.yul\":1622:1642   */\n      tag_19\n      jump\t// in\n    tag_50:\n        /* \"#utility.yul\":1617:1642   */\n      swap2\n      pop\n        /* \"#utility.yul\":1656:1676   */\n      tag_51\n        /* \"#utility.yul\":1674:1675   */\n      dup4\n        /* \"#utility.yul\":1656:1676   */\n      tag_19\n      jump\t// in\n    tag_51:\n        /* \"#utility.yul\":1651:1676   */\n      swap3\n      pop\n        /* \"#utility.yul\":1699:1700   */\n      dup3\n        /* \"#utility.yul\":1696:1697   */\n      dup3\n        /* \"#utility.yul\":1692:1701   */\n      add\n        /* \"#utility.yul\":1685:1701   */\n      swap1\n      pop\n        /* \"#utility.yul\":1720:1723   */\n      dup1\n        /* \"#utility.yul\":1717:1718   */\n      dup3\n        /* \"#utility.yul\":1714:1724   */\n      gt\n        /* \"#utility.yul\":1711:1747   */\n      iszero\n      tag_52\n      jumpi\n        /* \"#utility.yul\":1727:1745   */\n      tag_53\n      tag_26\n      jump\t// in\n    tag_53:\n        /* \"#utility.yul\":1711:1747   */\n    tag_52:\n        /* \"#utility.yul\":1563:1754   */\n      swap3\n      swap2\n      pop\n      pop\n      jump\t// out\n        /* \"#utility.yul\":1760:1929   */\n    tag_27:\n        /* \"#utility.yul\":1844:1855   */\n      0x00\n        /* \"#utility.yul\":1878:1884   */\n      dup3\n        /* \"#utility.yul\":1873:1876   */\n      dup3\n        /* \"#utility.yul\":1866:1885   */\n      mstore\n        /* \"#utility.yul\":1918:1922   */\n      0x20\n        /* \"#utility.yul\":1913:1916   */\n      dup3\n        /* \"#utility.yul\":1909:1923   */\n      add\n        /* \"#utility.yul\":1894:1923   */\n      swap1\n      pop\n        /* \"#utility.yul\":1760:1929   */\n      swap3\n      swap2\n      pop\n      pop\n      jump\t// out\n        /* \"#utility.yul\":1935:2109   */\n    tag_28:\n        /* \"#utility.yul\":2075:2101   */\n      0x416765206d757374206265206c657373207468616e2033320000000000000000\n        /* \"#utility.yul\":2071:2072   */\n      0x00\n        /* \"#utility.yul\":2063:2069   */\n      dup3\n        /* \"#utility.yul\":2059:2073   */\n      add\n        /* \"#utility.yul\":2052:2102   */\n      mstore\n        /* \"#utility.yul\":1935:2109   */\n      pop\n      jump\t// out\n        /* \"#utility.yul\":2115:2481   */\n    tag_29:\n        /* \"#utility.yul\":2257:2260   */\n      0x00\n        /* \"#utility.yul\":2278:2345   */\n      tag_57\n        /* \"#utility.yul\":2342:2344   */\n      0x18\n        /* \"#utility.yul\":2337:2340   */\n      dup4\n        /* \"#utility.yul\":2278:2345   */\n      tag_27\n      jump\t// in\n    tag_57:\n        /* \"#utility.yul\":2271:2345   */\n      swap2\n      pop\n        /* \"#utility.yul\":2354:2447   */\n      tag_58\n        /* \"#utility.yul\":2443:2446   */\n      dup3\n        /* \"#utility.yul\":2354:2447   */\n      tag_28\n      jump\t// in\n    tag_58:\n        /* \"#utility.yul\":2472:2474   */\n      0x20\n        /* \"#utility.yul\":2467:2470   */\n      dup3\n        /* \"#utility.yul\":2463:2475   */\n      add\n        /* \"#utility.yul\":2456:2475   */\n      swap1\n      pop\n        /* \"#utility.yul\":2115:2481   */\n      swap2\n      swap1\n      pop\n      jump\t// out\n        /* \"#utility.yul\":2487:2906   */\n    tag_18:\n        /* \"#utility.yul\":2653:2657   */\n      0x00\n        /* \"#utility.yul\":2691:2693   */\n      0x20\n        /* \"#utility.yul\":2680:2689   */\n      dup3\n        /* \"#utility.yul\":2676:2694   */\n      add\n        /* \"#utility.yul\":2668:2694   */\n      swap1\n      pop\n        /* \"#utility.yul\":2740:2749   */\n      dup2\n        /* \"#utility.yul\":2734:2738   */\n      dup2\n        /* \"#utility.yul\":2730:2750   */\n      sub\n        /* \"#utility.yul\":2726:2727   */\n      0x00\n        /* \"#utility.yul\":2715:2724   */\n      dup4\n        /* \"#utility.yul\":2711:2728   */\n      add\n        /* \"#utility.yul\":2704:2751   */\n      mstore\n        /* \"#utility.yul\":2768:2899   */\n      tag_60\n        /* \"#utility.yul\":2894:2898   */\n      dup2\n        /* \"#utility.yul\":2768:2899   */\n      tag_29\n      jump\t// in\n    tag_60:\n        /* \"#utility.yul\":2760:2899   */\n      swap1\n      pop\n        /* \"#utility.yul\":2487:2906   */\n      swap2\n      swap1\n      pop\n      jump\t// out\n\n    auxdata: 0xa264697066735822122067a9ae76648b87d20cb815619eafbd0644652a62e562d0a55694a218a03ec1e864736f6c63430008180033\n}\n",
				"bytecode": {
					"linkReferences": {},
					"object": "608060405260195f55348015610013575f80fd5b5061026d806100215f395ff3fe608060405234801561000f575f80fd5b5060043610610034575f3560e01c8063262a9dff14610038578063d5dcf12714610056575b5f80fd5b610040610072565b60405161004d91906100ed565b60405180910390f35b610070600480360381019061006b9190610134565b610077565b005b5f5481565b805f80828254610087919061018c565b9250508190555060205f54116100d2576040517f08c379a00000000000000000000000000000000000000000000000000000000081526004016100c990610219565b60405180910390fd5b50565b5f819050919050565b6100e7816100d5565b82525050565b5f6020820190506101005f8301846100de565b92915050565b5f80fd5b610113816100d5565b811461011d575f80fd5b50565b5f8135905061012e8161010a565b92915050565b5f6020828403121561014957610148610106565b5b5f61015684828501610120565b91505092915050565b7f4e487b71000000000000000000000000000000000000000000000000000000005f52601160045260245ffd5b5f610196826100d5565b91506101a1836100d5565b92508282019050808211156101b9576101b861015f565b5b92915050565b5f82825260208201905092915050565b7f416765206d757374206265206c657373207468616e20333200000000000000005f82015250565b5f6102036018836101bf565b915061020e826101cf565b602082019050919050565b5f6020820190508181035f830152610230816101f7565b905091905056fea264697066735822122067a9ae76648b87d20cb815619eafbd0644652a62e562d0a55694a218a03ec1e864736f6c63430008180033",
					"opcodes": "PUSH1 0x80 PUSH1 0x40 MSTORE PUSH1 0x19 PUSH0 SSTORE CALLVALUE DUP1 ISZERO PUSH2 0x13 JUMPI PUSH0 DUP1 REVERT JUMPDEST POP PUSH2 0x26D DUP1 PUSH2 0x21 PUSH0 CODECOPY PUSH0 RETURN INVALID PUSH1 0x80 PUSH1 0x40 MSTORE CALLVALUE DUP1 ISZERO PUSH2 0xF JUMPI PUSH0 DUP1 REVERT JUMPDEST POP PUSH1 0x4 CALLDATASIZE LT PUSH2 0x34 JUMPI PUSH0 CALLDATALOAD PUSH1 0xE0 SHR DUP1 PUSH4 0x262A9DFF EQ PUSH2 0x38 JUMPI DUP1 PUSH4 0xD5DCF127 EQ PUSH2 0x56 JUMPI JUMPDEST PUSH0 DUP1 REVERT JUMPDEST PUSH2 0x40 PUSH2 0x72 JUMP JUMPDEST PUSH1 0x40 MLOAD PUSH2 0x4D SWAP2 SWAP1 PUSH2 0xED JUMP JUMPDEST PUSH1 0x40 MLOAD DUP1 SWAP2 SUB SWAP1 RETURN JUMPDEST PUSH2 0x70 PUSH1 0x4 DUP1 CALLDATASIZE SUB DUP2 ADD SWAP1 PUSH2 0x6B SWAP2 SWAP1 PUSH2 0x134 JUMP JUMPDEST PUSH2 0x77 JUMP JUMPDEST STOP JUMPDEST PUSH0 SLOAD DUP2 JUMP JUMPDEST DUP1 PUSH0 DUP1 DUP3 DUP3 SLOAD PUSH2 0x87 SWAP2 SWAP1 PUSH2 0x18C JUMP JUMPDEST SWAP3 POP POP DUP2 SWAP1 SSTORE POP PUSH1 0x20 PUSH0 SLOAD GT PUSH2 0xD2 JUMPI PUSH1 0x40 MLOAD PUSH32 0x8C379A000000000000000000000000000000000000000000000000000000000 DUP2 MSTORE PUSH1 0x4 ADD PUSH2 0xC9 SWAP1 PUSH2 0x219 JUMP JUMPDEST PUSH1 0x40 MLOAD DUP1 SWAP2 SUB SWAP1 REVERT JUMPDEST POP JUMP JUMPDEST PUSH0 DUP2 SWAP1 POP SWAP2 SWAP1 POP JUMP JUMPDEST PUSH2 0xE7 DUP2 PUSH2 0xD5 JUMP JUMPDEST DUP3 MSTORE POP POP JUMP JUMPDEST PUSH0 PUSH1 0x20 DUP3 ADD SWAP1 POP PUSH2 0x100 PUSH0 DUP4 ADD DUP5 PUSH2 0xDE JUMP JUMPDEST SWAP3 SWAP2 POP POP JUMP JUMPDEST PUSH0 DUP1 REVERT JUMPDEST PUSH2 0x113 DUP2 PUSH2 0xD5 JUMP JUMPDEST DUP2 EQ PUSH2 0x11D JUMPI PUSH0 DUP1 REVERT JUMPDEST POP JUMP JUMPDEST PUSH0 DUP2 CALLDATALOAD SWAP1 POP PUSH2 0x12E DUP2 PUSH2 0x10A JUMP JUMPDEST SWAP3 SWAP2 POP POP JUMP JUMPDEST PUSH0 PUSH1 0x20 DUP3 DUP5 SUB SLT ISZERO PUSH2 0x149 JUMPI PUSH2 0x148 PUSH2 0x106 JUMP JUMPDEST JUMPDEST PUSH0 PUSH2 0x156 DUP5 DUP3 DUP6 ADD PUSH2 0x120 JUMP JUMPDEST SWAP2 POP POP SWAP3 SWAP2 POP POP JUMP JUMPDEST PUSH32 0x4E487B7100000000000000000000000000000000000000000000000000000000 PUSH0 MSTORE PUSH1 0x11 PUSH1 0x4 MSTORE PUSH1 0x24 PUSH0 REVERT JUMPDEST PUSH0 PUSH2 0x196 DUP3 PUSH2 0xD5 JUMP JUMPDEST SWAP2 POP PUSH2 0x1A1 DUP4 PUSH2 0xD5 JUMP JUMPDEST SWAP3 POP DUP3 DUP3 ADD SWAP1 POP DUP1 DUP3 GT ISZERO PUSH2 0x1B9 JUMPI PUSH2 0x1B8 PUSH2 0x15F JUMP JUMPDEST JUMPDEST SWAP3 SWAP2 POP POP JUMP JUMPDEST PUSH0 DUP3 DUP3 MSTORE PUSH1 0x20 DUP3 ADD SWAP1 POP SWAP3 SWAP2 POP POP JUMP JUMPDEST PUSH32 0x416765206D757374206265206C657373207468616E2033320000000000000000 PUSH0 DUP3 ADD MSTORE POP JUMP JUMPDEST PUSH0 PUSH2 0x203 PUSH1 0x18 DUP4 PUSH2 0x1BF JUMP JUMPDEST SWAP2 POP PUSH2 0x20E DUP3 PUSH2 0x1CF JUMP JUMPDEST PUSH1 0x20 DUP3 ADD SWAP1 POP SWAP2 SWAP1 POP JUMP JUMPDEST PUSH0 PUSH1 0x20 DUP3 ADD SWAP1 POP DUP2 DUP2 SUB PUSH0 DUP4 ADD MSTORE PUSH2 0x230 DUP2 PUSH2 0x1F7 JUMP JUMPDEST SWAP1 POP SWAP2 SWAP1 POP JUMP INVALID LOG2 PUSH5 0x6970667358 0x22 SLT KECCAK256 PUSH8 0xA9AE76648B87D20C 0xB8 ISZERO PUSH2 0x9EAF 0xBD MOD PREVRANDAO PUSH6 0x2A62E562D0A5 JUMP SWAP5 LOG2 XOR LOG0 RETURNDATACOPY 0xC1 0xE8 PUSH5 0x736F6C6343 STOP ADDMOD XOR STOP CALLER "
				},
				"gasEstimates": {
					"creation": {
						"codeDepositCost": "124200",
						"executionCost": "22274",
						"totalCost": "146474"
					},
					"external": {
						"age()": "2402",
						"setAge(uint256)": "infinite"
					}
				},
				"methodIdentifiers": {
					"age()": "262a9dff",
					"setAge(uint256)": "d5dcf127"
				}
			},
			"storageLayout": {
				"storage": [
					{
						"astId": 4,
						"contract": "contracts/Require.sol:RequireSol",
						"label": "age",
						"offset": 0,
						"slot": "0",
						"type": "t_uint256"
					}
				],
				"types": {
					"t_uint256": {
						"encoding": "inplace",
						"label": "uint256",
						"numberOfBytes": "32"
					}
				}
			},
			"userdoc": {
				"kind": "user",
				"methods": {},
				"version": 1
			}
		}
	}
}